:020000040804EE
:10000000000008209908040881070408FD07040877
:100010001D080408250804082D0804080000000035
:100020000000000000000000000000003508040887
:100030004308040800000000510804085F08040891
:10004000E9080408E9080408E9080408E9080408BC
:10005000E9080408E9080408E9080408E9080408AC
:10006000E9080408E9080408E9080408E90804089C
:10007000E9080408E9080408E9080408E90804088C
:10008000E9080408E9080408E9080408E90804087C
:10009000E9080408E9080408E9080408E90804086C
:1000A000E9080408E9080408E9080408E90804085C
:1000B000E9080408E9080408E9080408E90804084C
:1000C000E9080408E9080408E9080408E90804083C
:1000D000E9080408E9080408E9080408E90804082C
:1000E000E9080408E9080408E9080408E90804081C
:1000F000E9080408E9080408E9080408E90804080C
:10010000E9080408E9080408E9080408E9080408FB
:10011000E9080408E9080408E9080408E9080408EB
:10012000E9080408E9080408E9080408E9080408DB
:10013000E9080408E9080408E9080408E9080408CB
:10014000E9080408E9080408E9080408E9080408BB
:10015000E9080408E9080408E9080408E9080408AB
:10016000E9080408E9080408E9080408E90804089B
:10017000E9080408E9080408E90804080000000088
:10018000E9080408E9080408E9080408E90804087B
:10019000E9080408E9080408E9080408E90804086B
:1001A000E9080408E9080408E9080408E90804085B
:1001B000E9080408E9080408E9080408E90804084B
:1001C000E9080408E908040800000000E908040838
:1001D000E9080408E9080408E9080408E90804082B
:1001E000E9080408E9080408E9080408E90804081B
:0801F000E9080408E90804080D
:1001F80010B5054C237833B9044B13B10448AFF359
:1002080000800123237010BD0C00002000000000B6
:10021800D019040808B5034B1BB103490348AFF3D1
:10022800008008BD0000000010000020D01904085C
:1002380053B94AB9002908BF00281CBF4FF0FF3145
:100248004FF0FF3000F088B9ADF1080C6DE904CE2D
:1002580000F006F8DDF804E0DDE9022304B0704799
:100268002DE9F047089D8E4604468846002B4AD162
:100278008A42174662D9B2FA82F64EB1C6F1200315
:1002880001FA06F820FA03F3B74043EA0808B44035
:100298004FEA174E1FFA87FCB8FBFEF1230C0EFB42
:1002A800118843EA084301FB0CF29A4209D9FB186A
:1002B80001F1FF3080F0EA809A4240F2E78002398B
:1002C8003B449A1AA3B2B2FBFEF00EFB102243EA9B
:1002D800024300FB0CFC9C4509D9FB1800F1FF32D6
:1002E80080F0D6809C4540F2D3803B44023840EAF7
:1002F8000140A3EB0C0300211DB1F3400022C5E926
:100308000032BDE8F0878B4205D90DB1C5E900017F
:1003180000210846F5E7B3FA83F1002946D1734571
:1003280002D3824200F20581841A6EEB0302012097
:100338009046002DE5D0C5E90048E2E7002A00F024
:100348009080B2FA82F6002E40F0A4808A1A030C3C
:100358004FEA174E80B2BCB20121B2FBFEFC0EFB85
:100368001C2243EA024304FB0CF29A4207D9FB1809
:100378000CF1FF3802D29A4200F2E080C4469B1A80
:10038800B3FBFEF20EFB123340EA034302FB04F414
:100398009C4207D9FB1802F1FF3002D29C4200F2BE
:1003A800CA8002461B1B42EA0C40A5E7C1F12006A1
:1003B8008B4022FA06F71F430EFA01F420FA06F3DF
:1003C8002EFA06FE4FEA1749234300FA01F81FFAEE
:1003D80087FCBEFBF9F01C0C09FB10EE44EA0E4446
:1003E80000FB0CFEA64502FA01F209D93C1900F1FE
:1003F800FF3A80F09C80A64540F2998002383C4440
:10040800A4EB0E041FFA83FEB4FBF9F309FB1344B3
:100418004EEA044403FB0CFCA44508D93C1903F13B
:10042800FF3E80F08280A4457FD9023B3C4443EAEA
:100438000040A4EB0C04A0FB02EC64457346E146C3
:1004480062D35FD05DB1B8EB030264EB090404FA30
:1004580006F622FA01F31E43CC40C5E900640021E8
:100468004FE7B1FBF2FC010C41EA0E4180B240EAD1
:1004780001423B4638463C46B846BE462026B1FBBC
:10048800F7F1A2EB080241EA0C4166E7014618E7DA
:1004980010462CE7C6F120022EFA02F3B740B1400D
:1004A80020FA02F24FEA174E0A43B3FBFEF8BCB239
:1004B8000EFB1833110C41EA034108FB04F9B04064
:1004C80089454FEA104380B23ED9791808F1FF3CBC
:1004D80001D289451FD8A1EB0901B1FBFEF909FB3F
:1004E80004F80EFB191192B242EA0142424529D2A0
:1004F800BA1809F1FF31C4D24245C2D2A9F10201AA
:100508003A44BEE7F0459DD2BEEB02036CEB070C04
:100518000138E14696E7A7EB09094944A8F1020C1E
:10052800B1FBFEF909FB04F8DBE773467FE75046A9
:1005380066E70846FDE63B44023A33E7ACF1020CB5
:100548003B441CE749469CE7A1EB0901C446B1FBC3
:10055800FEF909FB04F8C4E7704700BF80B500AF97
:10056800124B134A9A60BFF34F8F00BFBFF36F8FD0
:1005780000BF00F0B6F962B600BF00F01DF8012216
:1005880080210C4800F0C0FC00F060F800228021B7
:10059800084800F0B9FC4FF48041064800F0CDFC53
:1005A8004FF4FA7000F0FAF900BFF4E700ED00E04C
:1005B800000004080004024080B586B000AF3B1D6F
:1005C80000221A605A609A60DA601A61114B1B6B3C
:1005D800104A43F0020313630E4B1B6B03F0020334
:1005E8003B603B68002244F281010B4800F08CFC20
:1005F80044F281037B600123BB600023FB6000237E
:100608003B613B1D1946044800F0D2FA00BF183779
:10061800BD4680BD003802400004024080B582B06B
:1006280000AF72B600BF8021064800F086FC0023A8
:100638007B6002E07B6801337B607B68024A9342FF
:10064800F8D9F0E7000402403F0D030080B594B0EC
:1006580000AF07F11C0334220021184601F088F985
:1006680007F1080300221A605A609A60DA601A617A
:1006780000F07EFC2C4B1B6C2B4A43F08053136418
:10068800294B1B6C03F080537B607B68274B1B68EE
:1006980023F44043254A43F480431360234B1B68EB
:1006A80003F440433B603B680123FB614FF4A02304
:1006B8003B6202237B634FF48003BB630423FB6329
:1006C80060233B6402237B640423BB640223FB6432
:1006D80007F11C03184600F0ABFC0346002B01D0C1
:1006E800FFF79CFF00F054FC0346002B01D0FFF7F6
:1006F80095FF0F23BB600223FB6000233B614FF48F
:1007080080537B610023BB6107F10803032118466E
:1007180000F03CFF0346002B01D0FFF77FFF00BF2E
:100728005037BD4680BD00BF003802400070004011
:1007380080B483B000AF0F4B1B6C0E4A43F080535C
:1007480013640C4B1B6C03F080537B607B68094B74
:100758005B6C084A43F480435364064B5B6C03F4B8
:1007680080433B603B6800BF0C37BD465DF8047BA7
:10077800704700BF0038024080B400AF00BFFDE7FB
:1007880080B48FB000AF78607B681B687B637B6840
:100798005B683B637B689B68FB627B68DB68BB626A
:1007A8007B681B697B627B685B693B627B689B69D2
:1007B800FB617B68DB69BB610D4B9B6A7B610C4B02
:1007C800DB6A3B610A4B9B6BFB60094B5B6BBB6055
:1007D8007B6B3B6BFB6ABB6A7B6A3B6AFB69BB69E9
:1007E8007B693B69FB68BB6800BE00BFFDE700BFD3
:1007F80000ED00E080B400AF1EF0040F0CBFEFF373
:100808000880EFF30980FFF7BBBF00BFBD465DF866
:10081800047B704780B400AF00BFFDE780B400AF31
:1008280000BFFDE780B400AF00BFFDE780B400AFB4
:1008380000BFBD465DF8047B704780B400AF00BFC1
:10084800BD465DF8047B704780B400AF00BFBD466D
:100858005DF8047B704780B500AF00F07FF800BFFB
:1008680080BD000080B400AF074BD3F88830064A3B
:1008780043F47003C2F88830034B044A9A6000BFFF
:10088800BD465DF8047B704700ED00E000000408F9
:10089800DFF834D0FFF7E6FF0C480D490D4A002376
:1008A80002E0D458C4500433C4188C42F9D30A4A1D
:1008B8000A4C002301E013600432A242FBD301F08A
:1008C8005FF8FFF74BFE704700000820000000208B
:1008D8000C000020081A04080C0000202C0000203E
:1008E800FEE780B500AF032000F02EF9002000F0ED
:1008F80005F8FFF71DFF0023184680BD80B582B0BC
:1009080000AF7860124B1A68124B1B7819464FF4E7
:100918007A73B3FBF1F3B2FBF3F3184600F03BF93B
:100928000346002B01D001230EE07B680F2B0AD869
:10093800002279684FF0FF3000F011F9064A7B6811
:100948001360002300E0012318460837BD4680BD28
:1009580000000020080000200400002080B400AF40
:10096800064B1B781A46064B1B681344044A13604F
:1009780000BFBD465DF8047B704700BF080000203B
:100988002800002080B400AF034B1B681846BD4602
:100998005DF8047B704700BF2800002080B584B054
:1009A80000AF7860FFF7EEFFB8607B68FB60FB681C
:1009B800B3F1FF3F05D00A4B1B781A46FB68134476
:1009C800FB6000BFFFF7DEFF0246BB68D31AFA6878
:1009D8009A42F7D800BF00BF1037BD4680BD00BFA0
:1009E8000800002080B485B000AF78607B6803F011
:1009F8000703FB600B4BDB68BB60BA684FF6FF036D
:100A08001340BB60FB681A02BB681A43064B1343CA
:100A1800BB60044ABB68D36000BF1437BD465DF8AD
:100A2800047B704700ED00E00000FA0580B400AFD9
:100A3800044BDB681B0A03F007031846BD465DF844
:100A4800047B704700ED00E080B483B000AF03463C
:100A58003960FB7197F90730002B0ADB3B68DAB283
:100A68000C4997F907301201D2B20B4483F80023DE
:100A78000AE03B68DAB20849FB7903F00F03043B4C
:100A88001201D2B20B441A7600BF0C37BD465DF88E
:100A9800047B704700E100E000ED00E080B489B01D
:100AA80000AFF860B9607A60FB6803F00703FB6188
:100AB800FB69C3F10703042B28BF0423BB61FB694F
:100AC8000433062B02D9FB69033B00E000237B615A
:100AD8004FF0FF32BB6902FA03F3DA43BB681A40EE
:100AE8007B699A404FF0FF317B6901FA03F3D943E0
:100AF8007B680B40134318462437BD465DF8047BDA
:100B08007047000080B582B000AF78607B68013B19
:100B1800B3F1807F01D301230FE00A4A7B68013BD0
:100B280053600F214FF0FF30FFF78EFF054B002277
:100B38009A60044B07221A60002318460837BD46FE
:100B480080BD00BF10E000E080B582B000AF7860E3
:100B58007868FFF747FF00BF0837BD4680BD80B5FE
:100B680086B000AF0346B9607A60FB7300237B61EF
:100B7800FFF75CFF78617A68B9687869FFF78EFFDC
:100B8800024697F90F3011461846FFF75DFF00BF80
:100B98001837BD4680BD80B582B000AF78607868F0
:100BA800FFF7B0FF034618460837BD4680BD000072
:100BB80080B489B000AF786039600023FB610023FE
:100BC8007B6100233B610023BB610023FB6175E16E
:100BD8000122FB6902FA03F37B613B681B687A69AF
:100BE80013403B613A697B699A4240F064813B68F3
:100BF8005B6803F00303012B05D03B685B6803F0D7
:100C08000303022B30D17B689B68BB61FB695B00E7
:100C1800032202FA03F3DB43BA691340BB613B6862
:100C2800DA68FB695B0002FA03F3BA691343BB6134
:100C38007B68BA699A607B685B68BB610122FB6963
:100C480002FA03F3DB43BA691340BB613B685B6894
:100C58001B0903F00102FB6902FA03F3BA691343A3
:100C6800BB617B68BA695A603B685B6803F0030341
:100C7800032B17D07B68DB68BB61FB695B00032231
:100C880002FA03F3DB43BA691340BB613B689A6815
:100C9800FB695B0002FA03F3BA691343BB617B6823
:100CA800BA69DA603B685B6803F00303022B23D15F
:100CB800FB69DA087B68083253F82230BB61FB69AC
:100CC80003F007039B000F2202FA03F3DB43BA6920
:100CD8001340BB613B681A69FB6903F007039B007B
:100CE80002FA03F3BA691343BB61FB69DA087B684C
:100CF8000832B96943F822107B681B68BB61FB693D
:100D08005B00032202FA03F3DB43BA691340BB61B9
:100D18003B685B6803F00302FB695B0002FA03F3BC
:100D2800BA691343BB617B68BA691A603B685B6840
:100D380003F44033002B00F0BE80664B5B6C654AC1
:100D480043F480435364634B5B6C03F48043FB6060
:100D5800FB68614AFB699B08023352F82330BB6188
:100D6800FB6903F003039B000F2202FA03F3DB4342
:100D7800BA691340BB617B68584A934237D07B6895
:100D8800574A934231D07B68564A93422BD07B68AE
:100D9800554A934225D07B68544A93421FD07B68BA
:100DA800534A934219D07B68524A934213D07B68C6
:100DB800514A93420DD07B68504A934207D07B68D2
:100DC8004F4A934201D1092312E00A2310E0082375
:100DD8000EE007230CE006230AE0052308E00423BD
:100DE80006E0032304E0022302E0012300E00023DD
:100DF800FA6902F0030292009340BA691343BB6197
:100E08003549FB699B080233BA6941F823203D4BF9
:100E18009B68BB613B69DB43BA691340BB613B68B4
:100E28005B6803F48013002B03D0BA693B69134352
:100E3800BB61344ABB699360324BDB68BB613B6979
:100E4800DB43BA691340BB613B685B6803F400137A
:100E5800002B03D0BA693B691343BB61294ABB69BC
:100E6800D360284B5B68BB613B69DB43BA691340BD
:100E7800BB613B685B6803F40033002B03D0BA699D
:100E88003B691343BB611F4ABB6953601D4B1B6819
:100E9800BB613B69DB43BA691340BB613B685B6874
:100EA80003F48033002B03D0BA693B691343BB6159
:100EB800144ABB691360FB690133FB61FB690F2BA3
:100EC8007FF686AE00BF00BF2437BD465DF8047BC1
:100ED800704700BF0038024000380140000002405F
:100EE8000004024000080240000C024000100240CA
:100EF8000014024000180240001C0240002002407A
:100F080000240240003C014080B483B000AF786008
:100F18000B467B8013467B707B78002B03D07A8846
:100F28007B689A6103E07B881A047B689A6100BF3A
:100F38000C37BD465DF8047B704780B485B000AFC0
:100F480078600B467B807B685B69FB607A88FB680E
:100F580013401A04FB68D9437B880B401A437B680B
:100F68009A6100BF1437BD465DF8047B70470000E6
:100F780080B400AF054B1B68044A43F480731360C8
:100F880000BFBD465DF8047B704700BF007000409D
:100F980080B582B000AF00237B60234B1B6C224AD4
:100FA80043F080531364204B1B6C03F080533B6069
:100FB8003B681E4B1B681D4A43F480331360FFF7E0
:100FC800E1FC786009E0FFF7DDFC02467B68D31A94
:100FD800B3F57A7F01D9032322E0144B5B6803F44D
:100FE8008033B3F5803FEED1104B1B680F4A43F4B2
:100FF80000331360FFF7C6FC786009E0FFF7C2FC16
:1010080002467B68D31AB3F57A7F01D9032307E038
:10101800064B5B6803F40033B3F5003FEED10023C1
:1010280018460837BD4680BD0038024000700040B1
:1010380080B586B000AF78600023FB757B68002B15
:1010480001D101239BE27B681B6803F00103002B9D
:1010580000F08780964B9B6803F00C03042B0CD0A0
:10106800934B9B6803F00C03082B12D1904B5B68E1
:1010780003F48003B3F5800F0BD18D4B1B6803F489
:101088000033002B6CD07B685B68002B68D1012390
:1010980075E27B685B68B3F5803F06D1844B1B68BB
:1010A800834A43F4803313602EE07B685B68002B2F
:1010B8000CD17F4B1B687E4A23F4803313607C4B32
:1010C8001B687B4A23F4802313601DE07B685B6800
:1010D800B3F5A02F0CD1764B1B68754A43F48023D7
:1010E8001360734B1B68724A43F4803313600BE040
:1010F8006F4B1B686E4A23F4803313606C4B1B687C
:101108006B4A23F4802313607B685B68002B13D041
:10111800FFF738FC386108E0FFF734FC02463B690A
:10112800D31A642B01D9032329E2614B1B6803F40A
:101138000033002BF0D014E0FFF724FC386108E0FE
:10114800FFF720FC02463B69D31A642B01D903231D
:1011580015E2574B1B6803F40033002BF0D100E075
:1011680000BF7B681B6803F00203002B69D0504B5B
:101178009B6803F00C03002B0BD04D4B9B6803F0CE
:101188000C03082B1CD14A4B5B6803F48003002B2B
:1011980016D1474B1B6803F00203002B05D07B6870
:1011A800DB68012B01D00123E9E1414B1B6823F0E7
:1011B800F8027B681B69DB003D4913430B6040E084
:1011C8007B68DB68002B23D0394B1B68384A43F017
:1011D80001031360FFF7D6FB386108E0FFF7D2FB85
:1011E80002463B69D31A022B01D90323C7E1304BCE
:1011F8001B6803F00203002BF0D02D4B1B6823F073
:10120800F8027B681B69DB00294913430B6018E06F
:10121800274B1B68264A23F001031360FFF7B2FB34
:10122800386108E0FFF7AEFB02463B69D31A022B90
:1012380001D90323A3E11E4B1B6803F00203002B13
:10124800F0D17B681B6803F00803002B38D07B685B
:101258005B69002B19D0164B5B6F154A43F00103ED
:101268005367FFF78FFB386108E0FFF78BFB0246F7
:101278003B69D31A022B01D9032380E10C4B5B6F26
:1012880003F00203002BF0D01AE0094B5B6F084A09
:1012980023F001035367FFF775FB38610AE0FFF796
:1012A80071FB02463B69D31A022B03D9032366E17B
:1012B80000380240924B5B6F03F00203002BEED123
:1012C8007B681B6803F00403002B00F0A4808C4BA0
:1012D8001B6C03F08053002B0DD1894B1B6C884A83
:1012E80043F080531364864B1B6C03F08053BB6040
:1012F800BB680123FB75834B1B6803F48073002BC9
:1013080018D1804B1B687F4A43F480731360FFF742
:1013180039FB386108E0FFF735FB02463B69D31A11
:10132800642B01D903232AE1764B1B6803F48073ED
:10133800002BF0D07B689B68012B06D1704B1B6F8C
:101348006F4A43F0010313672DE07B689B68002B0D
:101358000CD16B4B1B6F6A4A23F001031367684B70
:101368001B6F674A23F0040313671CE07B689B68C4
:10137800052B0CD1624B1B6F614A43F004031367C2
:101388005F4B1B6F5E4A43F0010313670BE05C4B36
:101398001B6F5B4A23F001031367594B1B6F584AB5
:1013A80023F0040313677B689B68002B15D0FFF7B5
:1013B800E9FA38610AE0FFF7E5FA02463B69D31A11
:1013C80041F28832934201D90323D8E04C4B1B6F7A
:1013D80003F00203002BEED014E0FFF7D3FA3861D4
:1013E8000AE0FFF7CFFA02463B69D31A41F2883286
:1013F800934201D90323C2E0414B1B6F03F0020360
:10140800002BEED1FB7D012B05D13D4B1B6C3C4ADB
:1014180023F0805313647B689B69002B00F0AE8037
:10142800374B9B6803F00C03082B6DD07B689B69D6
:10143800022B4BD1324B1B68314A23F08073136067
:10144800FFF7A0FA386108E0FFF79CFA02463B690B
:10145800D31A022B01D9032391E0294B1B6803F00F
:101468000073002BF0D17B68DA697B681B6A1A432A
:101478007B685B6A9B011A437B689B6A5B08013B3C
:101488001B041A437B68DB6A1B061A437B681B6BC9
:101498001B071B4913434B60194B1B68184A43F041
:1014A80080731360FFF76EFA386108E0FFF76AFA95
:1014B80002463B69D31A022B01D903235FE0104B84
:1014C8001B6803F00073002BF0D057E00C4B1B682F
:1014D8000B4A23F080731360FFF754FA386108E071
:1014E800FFF750FA02463B69D31A022B01D90323AE
:1014F80045E0034B1B6803F00073002BF0D13DE07F
:1015080000380240007000401F4B5B68FB607B683E
:101518009B69012B30D0FB6803F480027B68DB6990
:101528009A4229D1FB6803F03F027B681B6A9A4202
:1015380022D1FA6847F6C07313407A68526A92015A
:10154800934219D1FB6803F440327B689B6A5B08BD
:10155800013B1B049A420FD1FB6803F070627B6861
:10156800DB6A1B069A4207D1FB6803F0E0427B68FE
:101578001B6B1B079A4201D0012300E00023184689
:101588001837BD4680BD00BF0038024080B584B022
:1015980000AF786039600023FB607B68002B01D1C5
:1015A8000123D0E06A4B1B6803F00F033A689A42A4
:1015B80010D9674B1B6823F00F0265493B6813433A
:1015C8000B60634B1B6803F00F033A689A4201D023
:1015D8000123B8E07B681B6803F00203002B20D0CE
:1015E8007B681B6803F00403002B05D0594B9B68EC
:1015F800584A43F4E05393607B681B6803F0080380
:10160800002B05D0534B9B68524A43F460439360C8
:10161800504B9B6823F0F0027B689B684D4913434D
:101628008B607B681B6803F00103002B40D07B684C
:101638005B68012B07D1474B1B6803F40033002B71
:1016480015D101237FE07B685B68022B07D1414BF2
:101658001B6803F00073002B09D1012373E03D4B95
:101668001B6803F00203002B01D101236BE0394B07
:101678009B6823F003027B685B68364913438B60E1
:10168800FFF780F9F8600AE0FFF77CF90246FB688B
:10169800D31A41F28832934201D9032353E02D4BE8
:1016A8009B6803F00C027B685B689B009A42EBD155
:1016B800274B1B6803F00F033A689A4210D2244B59
:1016C8001B6823F00F0222493B6813430B60204B31
:1016D8001B6803F00F033A689A4201D0012332E0F5
:1016E8007B681B6803F00403002B08D0194B9B6828
:1016F80023F4E0527B68DB68164913438B607B68F0
:101708001B6803F00803002B09D0124B9B6823F4D5
:1017180060427B681B69DB000E4913438B6000F055
:1017280021F802460B4B9B681B0903F00F030A497B
:10173800CB5C22FA03F3094A1360094B1B6818466D
:10174800FFF7DCF8002318461037BD4680BD00BF00
:10175800003C024000380240E8190408000000205C
:10176800040000202DE9B04F94B000AF00237B6443
:101778000023FB6400233B640023BB64794B9B6814
:1017880003F00C03082B0DD0082B00F2E180002B8E
:1017980002D0042B03D0DBE0734BBB64DBE0734B5C
:1017A800BB64D8E06F4B5B6803F03F037B646D4B11
:1017B8005B6803F48003002B63D06A4B5B689B096A
:1017C8000022BB63FA63BB6BC3F308033B630023CC
:1017D8007B63D7E90C4522462B464FF000004FF0BB
:1017E8000001590141EAD261500102460B462146E7
:1017F800511A3961294663EB01037B614FF00002FE
:101808004FF00003D7E904AB59468B01514643EA30
:10181800916351468A015146B2EB0108594663EB80
:1018280001094FF000024FF000034FEAC90343EAF1
:1018380058734FEAC80290469946234618EB0303AB
:10184800BB602B4649EB0303FB604FF000024FF0EF
:101858000003D7E9024529464B02214643EAD15302
:1018680021464A02104619467B6C0022BB62FA6286
:10187800D7E90A23FEF7DCFC02460B461346FB6455
:1018880058E0384B5B689B09002218461146C0F3A4
:1018980008033B6200237B62D7E9088942464B462E
:1018A8004FF000004FF00001590141EAD2615001A8
:1018B80002460B464146B2EB010A494663EB010B6F
:1018C8004FF000024FF000034FEA8B1343EA9A638C
:1018D8004FEA8A12B2EB0A0463EB0B054FF00002E1
:1018E8004FF00003EB0043EA5473E20014461D4630
:1018F8004346E3183B604B4645EB03037B604FF0E0
:1019080000024FF00003D7E9004529468B02214623
:1019180043EA915321468A02104619467B6C0022FD
:10192800BB61FA61D7E90623FEF782FC02460B4643
:101938001346FB640B4B5B681B0C03F0030301337A
:101948005B003B64FA6C3B6CB2FBF3F3BB6402E0F4
:10195800054BBB6400BFBB6C18465037BD46BDE89D
:10196800B08F00BF003802400024F40000127A0053
:1019780002440346934200D1704703F8011BF9E77C
:1019880070B50D4D0D4C641BA4100026A64209D15C
:101998000B4D0C4C00F018F8641BA4100026A6424E
:1019A80005D170BD55F8043B98470136EEE755F868
:1019B800043B98470136F2E7001A0408001A0408A5
:1019C800001A0408041A0408F8B500BFF8BC08BCDB
:1019D8009E467047F8B500BFF8BC08BC9E467047E5
:1019E80000000000000000000102030406070809C7
:0819F80070E8FF7F0100000010
:041A00001D020408B7
:041A0400F9010408D8
:0C1A08000024F4001000000001000000A9
:04000005080408994A
:00000001FF
