:020000040800F2
:1000000000000820F119000869170008711700089E
:10001000E9170008F1170008F917000800000000B0
:1000200000000000000000000000000001180008AF
:100030000F180008000000001D1800082B18000809
:10004000411A0008411A0008411A0008411A000824
:10005000411A0008411A0008411A0008411A000814
:10006000411A0008411A0008411A0008411A000804
:10007000411A0008411A0008411A0008411A0008F4
:10008000411A0008411A0008411A0008411A0008E4
:10009000411A0008411A0008411A0008411A0008D4
:1000A000411A0008411A0008411A0008411A0008C4
:1000B000411A0008411A0008411A0008411A0008B4
:1000C000411A0008411A0008411A0008411A0008A4
:1000D000411A0008411A0008411A0008411A000894
:1000E000411A0008411A0008411A0008411A000884
:1000F000411A0008411A0008411A0008411A000874
:10010000411A0008411A0008411A0008411A000863
:10011000411A0008411A0008411A0008411A000853
:10012000411A0008411A0008411A0008411A000843
:10013000411A0008411A0008411A0008411A000833
:10014000411A0008411A0008411A0008411A000823
:10015000411A0008411A0008411A0008411A000813
:10016000411A0008411A0008411A0008411A000803
:10017000411A0008411A0008411A00080000000056
:10018000411A0008411A0008411A0008411A0008E3
:10019000411A0008411A0008411A0008411A0008D3
:1001A000411A0008411A0008411A0008411A0008C3
:1001B000411A0008411A0008411A0008411A0008B3
:1001C000411A0008411A000800000000411A000806
:1001D000411A0008411A0008411A0008411A000893
:1001E000411A0008411A0008411A0008411A000883
:0801F000411A0008411A000841
:1002000010B5054C237833B9044B13B10448AFF350
:1002100000800123237010BDC801002000000000F1
:10022000501D010808B5034B1BB103490348AFF348
:10023000008008BD00000000CC010020501D010816
:1002400001F0FF01102A2BDB10F0070F08D010F887
:10025000013B013A8B422DD010F0070F42B3F6D18B
:10026000F0B441EA012141EA014122F007047FF0A4
:1002700000070023F0E80256083C85EA010586EAFB
:10028000010685FA47F5A3FA87F586FA47F6A5FA37
:1002900087F68EB9EED1F0BC01F0FF0102F0070243
:1002A00032B110F8013B013A83EA010313B1F8D1EE
:1002B0000020704701387047002D06BF35460338CF
:1002C000073815F0010F07D1013015F4807F02BF08
:1002D000013015F4C03F0130F0BC0138704700BF59
:1002E00053B94AB9002908BF00281CBF4FF0FF319D
:1002F0004FF0FF3000F088B9ADF1080C6DE904CE85
:1003000000F006F8DDF804E0DDE9022304B07047F0
:100310002DE9F047089D8E4604468846002B4AD1B9
:100320008A42174662D9B2FA82F64EB1C6F120036C
:1003300001FA06F820FA03F3B74043EA0808B4408C
:100340004FEA174E1FFA87FCB8FBFEF1230C0EFB99
:10035000118843EA084301FB0CF29A4209D9FB18C1
:1003600001F1FF3080F0EA809A4240F2E7800239E2
:100370003B449A1AA3B2B2FBFEF00EFB102243EAF2
:10038000024300FB0CFC9C4509D9FB1800F1FF322D
:1003900080F0D6809C4540F2D3803B44023840EA4E
:1003A0000140A3EB0C0300211DB1F3400022C5E97D
:1003B0000032BDE8F0878B4205D90DB1C5E90001D7
:1003C00000210846F5E7B3FA83F1002946D17345C9
:1003D00002D3824200F20581841A6EEB03020120EF
:1003E0009046002DE5D0C5E90048E2E7002A00F07C
:1003F0009080B2FA82F6002E40F0A4808A1A030C94
:100400004FEA174E80B2BCB20121B2FBFEFC0EFBDC
:100410001C2243EA024304FB0CF29A4207D9FB1860
:100420000CF1FF3802D29A4200F2E080C4469B1AD7
:10043000B3FBFEF20EFB123340EA034302FB04F46B
:100440009C4207D9FB1802F1FF3002D29C4200F215
:10045000CA8002461B1B42EA0C40A5E7C1F12006F8
:100460008B4022FA06F71F430EFA01F420FA06F336
:100470002EFA06FE4FEA1749234300FA01F81FFA45
:1004800087FCBEFBF9F01C0C09FB10EE44EA0E449D
:1004900000FB0CFEA64502FA01F209D93C1900F155
:1004A000FF3A80F09C80A64540F2998002383C4497
:1004B000A4EB0E041FFA83FEB4FBF9F309FB13440B
:1004C0004EEA044403FB0CFCA44508D93C1903F193
:1004D000FF3E80F08280A4457FD9023B3C4443EA42
:1004E0000040A4EB0C04A0FB02EC64457346E1461B
:1004F00062D35FD05DB1B8EB030264EB090404FA88
:1005000006F622FA01F31E43CC40C5E9006400213F
:100510004FE7B1FBF2FC010C41EA0E4180B240EA28
:1005200001423B4638463C46B846BE462026B1FB13
:10053000F7F1A2EB080241EA0C4166E7014618E731
:1005400010462CE7C6F120022EFA02F3B740B14064
:1005500020FA02F24FEA174E0A43B3FBFEF8BCB290
:100560000EFB1833110C41EA034108FB04F9B040BB
:1005700089454FEA104380B23ED9791808F1FF3C13
:1005800001D289451FD8A1EB0901B1FBFEF909FB96
:1005900004F80EFB191192B242EA0142424529D2F7
:1005A000BA1809F1FF31C4D24245C2D2A9F1020101
:1005B0003A44BEE7F0459DD2BEEB02036CEB070C5C
:1005C0000138E14696E7A7EB09094944A8F1020C76
:1005D000B1FBFEF909FB04F8DBE773467FE7504601
:1005E00066E70846FDE63B44023A33E7ACF1020C0D
:1005F0003B441CE749469CE7A1EB0901C446B1FB1B
:10060000FEF909FB04F8C4E7704700BF80B483B06B
:1006100000AF00237B6010E00F4A7B6820334FF06F
:10062000FF3142F823100C4A7B6860334FF0FF31F2
:1006300042F823107B6801337B607B68072BEBD982
:10064000BFF34F8F00BFBFF36F8F00BF00BF0C37EA
:10065000BD465DF8047B704700E100E080B586B0E0
:1006600000AF78607B681B687B617B6804331B6824
:100670003B6172B600BF1E4B5B691D4A23F0080345
:100680005361BFF34F8F00BFBFF36F8F00BF194B94
:1006900000221A60174B00225A60164B00229A6003
:1006A000FFF7B4FF124B4FF0FF329A62104B4FF03E
:1006B000FF32DA620E4B4FF0FF321A630C4B00220E
:1006C0005A630B4B00229A63094A7B689360BFF31D
:1006D0004F8F00BFBFF36F8F00BF7B69FB60FB686C
:1006E00083F3088800BF3B69984700BFFDE700BF60
:1006F00000ED00E010E000E0B0B58CB000AFF860B5
:10070000B96011461A460B46FB8013467B7107F110
:10071000140300221A605A609A60DA601A615A6102
:100720001E4B7B617B793B7618237B833B6CFB61A3
:100730007B6C3B62BB6C7B620023BB624FF420721C
:100740001821362007F030FAF862FB6A002B03D03C
:10075000FB6A5B89172B06D8FB6A002B1AD0F86A54
:1007600007F006FD16E0FB6A5B681D4607F11404FE
:100770000FCC28606960AA60EB6003CC28616961D6
:10078000FB88BA68F96AF8680DF02CFDF86A07F082
:10079000EFFC00E000BF3037BD46B0BDAD1007B084
:1007A00080B58CB000AFF860B96011461A460B46B0
:1007B000FB8013467B7107F1140300221A605A6014
:1007C0009A60DA601A615A61254B7B617B793B76CE
:1007D00018237B83BB6BFB61FB6B3B623B6C7B62D7
:1007E000BB6CBB62BB6C9BB218339BB24FF42072E4
:1007F0001946362007F0D8F9F862FB6A002B06D0BC
:10080000FB6A1B891A46BB6C18339A4206D2FB6AF4
:10081000002B21D0F86A07F0ABFC1DE007F11403B0
:1008200018221946F86A07F04BFFBB6C002B09D061
:100830007B6C002B06D0BB6C9AB21823796CF86ADB
:1008400007F0D0FFFB88BA68F96AF8680DF0CAFCB7
:10085000F86A07F08DFC00E000BF3037BD4680BD70
:10086000AD1007B0B0B5ADF58C6D06AF07F5896476
:10087000A4F23C44206007F58960A0F5886001601F
:1008800007F58961A1F244410A6007F58962A2F582
:100890008962136007F58963A3F244431B68002B48
:1008A00000F0C58207F58963A3F244431B681B89E6
:1008B000172B07D807F58963A3F24443186807F09C
:1008C00057FCB5E207F5826107F58963A3F244405E
:1008D00000231822006807F045FED7F81034C44AF8
:1008E000934203D1B7F81634182B07D007F5896364
:1008F000A3F24443186807F03BFC99E297F81434DC
:10090000013B082B00F2728201A252F823F000BFD3
:1009100035090008ED0D0008170D00080F0A000842
:10092000410C0008ED0D0008ED0D0008ED0D00086C
:1009300065090008D7F81834B7F8582407F5896115
:10094000A1F5896107F58960A0F588604FF440241E
:100950000294A84C01940093022309680068FFF7F1
:10096000CBFE5CE2D7F81C34C7F84034D7F820340B
:10097000C7F84434D7F84434402B02D94023C7F891
:100980004434D7F840349C4A934207D9D7F84024DE
:10099000D7F844341344B3F1016F18D9D7F8183499
:1009A000D7F81824B7F8584407F58961A1F589618B
:1009B00007F58960A0F588600425029501920093EF
:1009C0000723224609680068FFF796FE27E2D7F85A
:1009D0001834D7F84024B7F8585407F58961A1F5C1
:1009E000896107F58960A0F58860D7F844440494CC
:1009F0000392D7F844240292D7F84024019200933E
:100A00000A232A4609680068FFF7CAFE07E2D7F8FA
:100A10001C34C7F83434D7F82434C7F83034D7F846
:100A20003424744B1344C7F82C34744B1B68D7F828
:100A300034249A4218D9D7F81834D7F81824B7F8BC
:100A4000584407F58961A1F5896107F58960A0F52A
:100A500088600525029501920093072322460968C4
:100A60000068FFF749FEDAE1D7F83034002B04D0F4
:100A7000D7F83034B3F5806F18D9D7F81834D7F8D1
:100A80001824B7F8584407F58961A1F5896107F57D
:100A90008960A0F5886006250295019200930723DE
:100AA000224609680068FFF727FEB8E1D7F834242A
:100AB000D7F830341A44514B1B689A4218D9D7F8EA
:100AC0001834D7F81824B7F8584407F58961A1F508
:100AD000896107F58960A0F5886007250295019274
:100AE00000930723224609680068FFF705FE96E198
:100AF00007F58963A3F244431B681B891A46D7F89C
:100B0000303418339A4218D2D7F81834D7F818244A
:100B1000B7F8584407F58961A1F5896107F589603F
:100B2000A0F58860082502950192009307232246CC
:100B300009680068FFF7E0FD71E1D7F82C3403F095
:100B40000303002B05D1D7F8303403F00303002B47
:100B500018D0D7F81834D7F81824B7F8584407F540
:100B60008961A1F5896107F58960A0F5886009258B
:100B70000295019200930723224609680068FFF757
:100B8000BBFD4CE1D7F830349AB207F1100107F5FC
:100B90008963A3F244401823006807F0E3FC07F1DF
:100BA0001003D7F830241946D7F82C0400F0C3FA04
:100BB000C7F82804D7F82834002B21D0D7F81834E8
:100BC000D7F81824B7F8584407F58961A1F5896169
:100BD00007F58960A0F588600A25029501920093C7
:100BE0000723224609680068FFF786FD17E100BF6A
:100BF000AD1007B000000408FFFF0308E801002063
:100C00008D4B1A68D7F8303413448B4A1360D7F8E9
:100C10001834D7F81824B7F8584407F58961A1F5B6
:100C2000896107F58960A0F5886000250295019229
:100C300000930623224609680068FFF75DFDEEE099
:100C40007D4B1A687D4B1B689A4219D0D7F818342F
:100C5000794A126879490C68B7F8585407F58961E0
:100C6000A1F5896107F58960A0F588600294019279
:100C7000009307232A4609680068FFF73DFDCEE090
:100C80006F4BC7F83C346D4B1B681946D7F83C04D2
:100C900000F06CF9C7F838046A4B1B68D7F83824A1
:100CA0009A4219D0D7F81834664A1268B7F85844EF
:100CB00007F58961A1F5896107F58960A0F588606C
:100CC0000292D7F83824019200930723224609683C
:100CD0000068FFF711FDA2E0D7F81834D7F8182400
:100CE000B7F8584407F58961A1F5896107F589606E
:100CF000A0F5886000250295019200930823224602
:100D000009680068FFF7F8FC4F4B4D4A1A604F4BDB
:100D100001221A7083E0D7F81C34484A1360D7F8D0
:100D20002034484A1360444B00221A60484B00228A
:100D30001A60424B1B68002B04D0404B1B68B3F574
:100D4000402F18D9D7F81834D7F81824B7F85844D2
:100D500007F58961A1F5896107F58960A0F58860CB
:100D60000125029501920093072322460968006835
:100D7000FFF7C2FC53E0314B1B681946304800F0C6
:100D800087F90346002B18D0D7F81834D7F8182461
:100D9000B7F8584407F58961A1F5896107F58960BD
:100DA000A0F588600325029501920093072322464F
:100DB00009680068FFF7A0FC31E0D7F81834D7F8CD
:100DC0001824B7F8584407F58961A1F5896107F53A
:100DD0008960A0F5886000250295019200930623A2
:100DE000224609680068FFF787FC18E0D7F8183436
:100DF000D7F81824B7F8584407F58961A1F5896137
:100E000007F58960A0F5886002250295019200939C
:100E10000723224609680068FFF76EFC00BF07F54C
:100E20008963A3F24443186807F0A2F900E000BF09
:100E300007F58967BD46B0BDF0010020E80100203C
:100E400000000408EC010020FC010020F801002053
:100E5000F401002080B500AF0DF064FC0346124A97
:100E60001360114B1B68002B1BD00F4B1B6841F20A
:100E700088320E4918460DF06BFB0346002B08D054
:100E8000094B1B6818460DF00BFC074B00221A603B
:100E900008E0054B1B680022054918460DF0E0FBF1
:100EA00000E000BF80BD00BFE40100203C48010815
:100EB0006508000880B500AF0C4B1B78DBB2002B37
:100EC00012D00A4B00221A7001228021084802F039
:100ED00033FE084B1B681846FFF7C0FB0022802139
:100EE000034802F029FE00E000BF80BDF8010020A9
:100EF00000040240FC01002080B489B000AFF8601B
:100F0000B9607A60FB68DB43FB600023FB611FE094
:100F1000BA68FB6913441B781A46FB685340FB60B0
:100F20000023BB610EE0FB6803F001035B427B61C1
:100F3000FB685A0879690C4B0B405340FB60BB6956
:100F40000133BB61BB69072BEDDDFB690133FB613D
:100F5000FA697B689A42DBD3FB68DB431846243787
:100F6000BD465DF8047B70472083B8ED80B582B044
:100F700000AF786039603A6879680020FFF7BCFFFD
:100F8000034618460837BD4680BD000080B483B0D4
:100F900000AF78607B68B3F1016F2BD27B682E4A7B
:100FA000934201D2002350E07B682C4A934201D83F
:100FB00001234AE07B682A4A934201D2022344E09B
:100FC0007B68284A934201D803233EE07B68264A87
:100FD000934201D8042338E07B68244A934201D825
:100FE000052332E07B68224A934201D806232CE095
:100FF00007232AE07B681F4A934201D2082324E09A
:101000007B681D4A934201D809231EE07B681B4A76
:10101000934201D20A2318E07B68194A934201D80F
:101020000B2312E07B68174A934201D80C230CE093
:101030007B68154A934201D80D2306E07B68134A6A
:10104000934201D80E2300E00F2318460C37BD460B
:101050005DF8047B704700BF00800008FFFF0008B8
:1010600000800108FFFF0108FFFF0308FFFF0708DA
:10107000FFFF0B0800801008FFFF10080080110818
:10108000FFFF1108FFFF1308FFFF1708FFFF1B08F2
:1010900080B58CB000AF786039603B68002B02D11E
:1010A0006FF0010343E07A683B681344013BFB6245
:1010B0007B68B3F1006F03D3FB6AB3F1026F02D315
:1010C0006FF0020333E07868FFF760FFB862F86AF8
:1010D000FFF75CFF786207F10C0300221A605A6088
:1010E0009A60DA601A610023BB600023FB60022370
:1010F000FB61BB6A7B617A6ABB6AD31A0133BB614D
:1011000002F010F907F1080207F10C031146184626
:1011100002F06AFA034687F8233002F025F997F8BF
:101120002330002B01D1002301E04FF0FF3318469C
:101130003037BD4680BDB0B586B000AFF860B9604D
:101140007A60FB6803F00303002B04D17B6803F093
:101150000303002B02D06FF001033EE002F0E2F83F
:1011600000237B6132E0BA687B6913441B7819461F
:101170007B690133BA6813441B781B0241EA0302FE
:101180007B690233B9680B441B781B041A437B69E3
:101190000333B9680B441B781B0613433B61FA68A1
:1011A0007B69D1183B6900221C46154622462B4616
:1011B000022002F05DF80346002B04D002F0D4F8C0
:1011C0004FF0FF3309E07B6904337B617A697B6808
:1011D0009A42C8D302F0C8F8002318461837BD4613
:1011E000B0BD000080B500AF00F08EF900F02FFD1B
:1011F00000F018F800F0E6F800F086F800F0B4F817
:1012000004F028FFFFF726FE01220121044802F026
:1012100093FC05F05FF8FFF74DFE00BFF9E700BF54
:101220000004024080B594B000AF07F11C033422E3
:10123000002118460FF0E9FE07F1080300221A60AA
:101240005A609A60DA601A6102F0E4FD2C4B1B6C64
:101250002B4A43F080531364294B1B6C03F08053DB
:101260007B607B68274B1B6823F44043254A43F48B
:1012700080431360234B1B6803F440433B603B688F
:101280000123FB614FF4A0233B6202237B634FF4F5
:101290008003BB630423FB6360233B6402237B6402
:1012A0000423BB640223FB6407F11C03184602F00D
:1012B00011FE0346002B01D000F052F902F0BAFDF6
:1012C0000346002B01D000F04BF90F23BB60022333
:1012D000FB6000233B614FF480537B610023BB61C3
:1012E00007F108030321184603F0A2F80346002B78
:1012F00001D000F035F900BF5037BD4680BD00BFBA
:10130000003802400070004080B500AF144B154A11
:101310001A60134B4FF4E1325A60114B00229A606D
:101320000F4B0022DA600E4B00221A610C4B0C228C
:101330005A610B4B00229A61094B0022DA61084B7B
:1013400000221A62064B00225A62054803F0BEFED4
:101350000346002B01D000F003F900BF80BD00BFA1
:10136000000200200048004080B500AF144B4FF051
:10137000A0421A60124B06221A71114B0222DA7136
:101380000F4B00229A710E4B02225A720C4B012213
:101390009A720B4B0022DA72094B00221A73084B27
:1013A00001229A73064B0022DA73054802F0F7FB1C
:1013B0000346002B01D000F0D3F800BF80BD00BF72
:1013C0008802002080B58CB000AF07F11C0300221A
:1013D0001A605A609A60DA601A61474B1B6B464A82
:1013E00043F004031363444B1B6B03F00403BB6122
:1013F000BB69414B1B6B404A43F0800313633E4B78
:101400001B6B03F080037B617B693B4B1B6B3A4A90
:1014100043F001031363384B1B6B03F001033B6183
:101420003B69354B1B6B344A43F002031363324B69
:101430001B6B03F00203FB60FB682F4B1B6B2E4AF8
:1014400043F0080313632C4B1B6B03F00803BB60D2
:10145000BB68294B1B6B284A43F040031363264BA0
:101460001B6B03F040037B607B68002244F2810128
:10147000224802F061FB00224021214802F05CFB7F
:101480004FF40053FB614FF488133B6200237B62EF
:1014900007F11C0319461B4802F0A2F944F281032C
:1014A000FB6101233B6200237B620023BB6207F1E7
:1014B0001C031946114802F093F94023FB610123F4
:1014C0003B6200237B620023BB6207F11C031946C9
:1014D0000B4802F085F98023FB6100233B62002367
:1014E0007B6207F11C031946054802F079F900BF39
:1014F0003037BD4680BD00BF0038024000040240C6
:10150000001802400008024080B584B000AF3B469E
:1015100000221A605A609A60DA6000F0FFFC012332
:101520003B7000237B7000237B601F233B7287236B
:101530007B720023BB720023FB7201233B730123E8
:101540007B730023BB730023FB733B46184600F0FC
:101550001DFD042000F0FAFC00BF1037BD4680BD21
:1015600080B400AF72B600BF00BFFDE780B483B0A7
:1015700000AF0F4B1B6C0E4A43F0805313640C4BAF
:101580001B6C03F080537B607B68094B5B6C084AE3
:1015900043F480435364064B5B6C03F480433B602D
:1015A0003B6800BF0C37BD465DF8047B704700BF49
:1015B0000038024080B5AEB000AF786007F1A403F8
:1015C00000221A605A609A60DA601A6107F1140307
:1015D0009022002118460FF018FD7B681B68224AF4
:1015E00093423CD14FF480737B6100233B6607F14B
:1015F0001403184603F042F90346002B01D0FFF70D
:10160000AFFF1A4B1B6C194A43F480231364174B2A
:101610001B6C03F480233B613B69144B1B6B134A27
:1016200043F008031363114B1B6B03F00803FB60CB
:10163000FB684FF44073C7F8A4300223C7F8A83002
:101640000023C7F8AC300323C7F8B0300723C7F82E
:10165000B43007F1A4031946054802F0C1F800BFF1
:10166000B837BD4680BD00BF00480040003802408A
:10167000000C024080B5AEB000AF786007F1A40363
:1016800000221A605A609A60DA601A6107F1140346
:101690009022002118460FF0B8FC7B681B68B3F15C
:1016A000A04F59D14FF400137B610023C7F890304D
:1016B00007F11403184603F0E1F80346002B01D0AC
:1016C000FFF74EFF264B1B6B254A43F001031363C4
:1016D000234B1B6B03F001033B613B694FF4E85361
:1016E000C7F8A4300223C7F8A8300023C7F8AC30ED
:1016F0000323C7F8B0300A23C7F8B43007F1A403B6
:101700001946184802F06CF84FF40073C7F8A4307B
:101710000023C7F8A8300023C7F8AC3007F1A403B2
:101720001946104802F05CF80D4B5B6B0C4A43F015
:10173000800353630A4B5B6B03F08003FB60FB6821
:10174000074B5B6C064A43F480435364044B5B6C69
:1017500003F48043BB60BB6800BFB837BD4680BDA3
:10176000003802400000024080B400AF00BFFDE737
:1017700080B588B000AF194B1B6B184A43F00203C9
:101780001363164B1B6B03F00203BB60BB6807F1CE
:101790000C0300221A605A609A60DA601A614FF4F2
:1017A0008043FB6001233B6100237B610023BB611D
:1017B00007F10C0319460A4802F012F84FF4804171
:1017C000074802F0D2F900237B6002E07B68013316
:1017D0007B607B68034A9342F8D9EFE70038024008
:1017E000000402403F0D030080B400AF00BFFDE7DE
:1017F00080B400AF00BFFDE780B400AF00BFFDE7DD
:1018000080B400AF00BFBD465DF8047B704780B474
:1018100000AF00BFBD465DF8047B704780B400AFE9
:1018200000BFBD465DF8047B704780B500AF00F097
:101830004BFA00BF80BD80B400AF01231846BD46FF
:101840005DF8047B7047000080B483B000AF78601F
:101850003960054B16221A604FF0FF3318460C37DB
:10186000BD465DF8047B70472484002080B582B0BB
:1018700000AF78604FF0FF317868FFF7E5FF00BFF9
:10188000FDE780B586B000AFF860B9607A600023EC
:101890007B610AE0AFF300800146BB685A1CBA6066
:1018A000CAB21A707B6901337B617A697B689A429C
:1018B000F0DB7B6818461837BD4680BD80B586B022
:1018C00000AFF860B9607A6000237B6109E0BB6813
:1018D0005A1CBA601B781846AFF300807B6901334D
:1018E0007B617A697B689A42F1DB7B68184618371E
:1018F000BD4680BD80B483B000AF78604FF0FF3349
:1019000018460C37BD465DF8047B704780B483B041
:1019100000AF786039603B684FF400525A60002392
:1019200018460C37BD465DF8047B704780B483B021
:1019300000AF7860012318460C37BD465DF8047B84
:10194000704780B485B000AFF860B9607A6000235A
:1019500018461437BD465DF8047B704780B487B0E5
:1019600000AF7860144A154BD31A7B617B693B61E9
:10197000134B1B68002B02D1114B124A1A60104BFB
:101980001A687B6813443A699A4205D20E4B0C22BE
:101990001A604FF0FF3309E0094B1B68FB60084BEE
:1019A0001A687B681344064A1360FB6818461C37A4
:1019B000BD465DF8047B704700000820000400006D
:1019C00068070020388400202484002080B400AF01
:1019D000064BD3F88830054A43F47003C2F88830C8
:1019E00000BFBD465DF8047B704700BF00ED00E01E
:1019F000DFF834D0FFF7EAFF0C480D490D4A002309
:101A000002E0D458C4500433C4188C42F9D30A4AB3
:101A10000A4C002301E013600432A242FBD30FF012
:101A200043FBFFF7DFFB70470000082000000020A9
:101A3000880000203C490108C801002034840020AF
:101A4000FEE780B483B000AF786039607B68002B1C
:101A50000BD03B68DB68002B07D03B689B68002BF2
:101A600003D03B681B69002B02D14FF0FF3314E019
:101A70003B681A687B689A603B685A687B68DA60E2
:101A80003B68DA687B685A613B689A687B681A61D0
:101A90003B681A697B689A61002318460C37BD467B
:101AA0005DF8047B704780B586B000AF7860002396
:101AB000FB6000237B6100233B617B685B68002B3C
:101AC00039D17B689B68002B02D07B689B68984764
:101AD0007B6820221A6000237B611CE07B685B69C5
:101AE00007F10C021221786998470346002B03DAAC
:101AF0006FF004033B610BE0FB6803F01F037A699E
:101B00009A4205D17B687A691A6000233B6105E03F
:101B10007B6901337B617B691F2BDFD97B681B6885
:101B20001F2B02D96FF002033B613B69002B02D1EE
:101B30007B6801225A603B6918461837BD4680BD54
:101B400080B584B000AF78600023FB607B685B6980
:101B50007A68106807F10C02012198470346002BB0
:101B600002DA6FF004036EE07B685B697A681068E4
:101B700007F10C02012198470346002B02DA6FF0AF
:101B8000040360E0FB6803F00403002B01D1012390
:101B900059E07B685B697A68106807F10C020021E4
:101BA00098470346002B02DA6FF004034BE0FB6812
:101BB00003F48053002B1BD1FB6803F40053002B6C
:101BC00006D0FB6803F48073002B01D002233AE0B7
:101BD000FB6803F40053002B01D0032333E0FB68C0
:101BE00003F48073002B01D004232CE005232AE0AA
:101BF0007B685B697A68106807F10C021F219847BF
:101C00000346002B02DA6FF004031CE0FB6803F4C8
:101C10008053002B01D1062315E0FB6803F01C0361
:101C2000182B01D102230EE0FB6803F01C03082BE4
:101C300001D1032307E0FB6803F01C03142B01D13F
:101C4000042300E0052318461037BD4680BD80B54B
:101C500000AF032000F02EF9002000F005F8FFF798
:101C600085FC0023184680BD80B582B000AF786047
:101C7000124B1A68124B1B7819464FF47A73B3FB58
:101C8000F1F3B2FBF3F3184600F03BF90346002BE7
:101C900001D001230EE07B680F2B0AD8002279685F
:101CA0004FF0FF3000F011F9064A7B681360002303
:101CB00000E0012318460837BD4680BD0000002023
:101CC000080000200400002080B400AF064B1B7801
:101CD0001A46064B1B681344044A136000BFBD46F6
:101CE0005DF8047B704700BF080000206C070020EF
:101CF00080B400AF034B1B681846BD465DF8047BFB
:101D0000704700BF6C07002080B584B000AF7860DA
:101D1000FFF7EEFFB8607B68FB60FB68B3F1FF3F45
:101D200005D00A4B1B781A46FB681344FB6000BFC2
:101D3000FFF7DEFF0246BB68D31AFA689A42F7D86B
:101D400000BF00BF1037BD4680BD00BF08000020A7
:101D500080B485B000AF78607B6803F00703FB6058
:101D60000B4BDB68BB60BA684FF6FF031340BB60E8
:101D7000FB681A02BB681A43064B1343BB60044A54
:101D8000BB68D36000BF1437BD465DF8047B704765
:101D900000ED00E00000FA0580B400AF044BDB6802
:101DA0001B0A03F007031846BD465DF8047B704725
:101DB00000ED00E080B483B000AF03463960FB71F2
:101DC00097F90730002B0ADB3B68DAB20C4997F928
:101DD00007301201D2B20B4483F800230AE03B68BB
:101DE000DAB20849FB7903F00F03043B1201D2B2C7
:101DF0000B441A7600BF0C37BD465DF8047B704774
:101E000000E100E000ED00E080B489B000AFF860D0
:101E1000B9607A60FB6803F00703FB61FB69C3F1FB
:101E20000703042B28BF0423BB61FB690433062B83
:101E300002D9FB69033B00E000237B614FF0FF32D6
:101E4000BB6902FA03F3DA43BB681A407B699A4024
:101E50004FF0FF317B6901FA03F3D9437B680B40F4
:101E6000134318462437BD465DF8047B70470000D5
:101E700080B582B000AF78607B68013BB3F1807FB2
:101E800001D301230FE00A4A7B68013B53600F2115
:101E90004FF0FF30FFF78EFF054B00229A60044B96
:101EA00007221A60002318460837BD4680BD00BFD0
:101EB00010E000E080B582B000AF78607868FFF78E
:101EC00047FF00BF0837BD4680BD80B586B000AF74
:101ED0000346B9607A60FB7300237B61FFF75CFF08
:101EE00078617A68B9687869FFF78EFF024697F9DA
:101EF0000F3011461846FFF75DFF00BF1837BD468B
:101F000080BD80B582B000AF78607868FFF7B0FF21
:101F1000034618460837BD4680BD000080B400AFB8
:101F2000BFF35F8F00BF074B5B6A064A23F4803321
:101F30005362054B00225A6000BFBD465DF8047B2A
:101F4000704700BF00ED00E090ED00E080B483B08A
:101F500000AF78600B4A7B6843F0010353600A4B83
:101F60005B6A094A43F480335362BFF34F8F00BF6B
:101F7000BFF36F8F00BF00BF0C37BD465DF8047B19
:101F8000704700BF90ED00E000ED00E080B483B04A
:101F900000AF78607B685A781B4B9A601A4B1B69BC
:101FA000194A23F001031361174A7B685B68D36009
:101FB0007B681B7B1A077B68DB7A1B061A437B68EE
:101FC0009B7ADB041A437B685B7B9B041A437B6828
:101FD0009B7B5B041A437B68DB7B1B041A437B6897
:101FE0005B7A1B021A437B681B7A5B0013437A6897
:101FF00012781146044A0B43136100BF0C37BD46EB
:102000005DF8047B704700BF90ED00E080B584B0C0
:1020100000AF78607B68002B01D1012386E07B68EC
:10202000D3F88430002B06D17B682022C3F88420AB
:10203000786804F03FFB3F4B5B6C3E4A43F48043BF
:1020400053643C4B5B6C03F48043BB60BB683A4B0E
:102050005B68394A23F400035360374B5A687B6846
:102060009B68354913434B60334B5B687B681B6847
:1020700003F580531B687A68126843F0010302F588
:1020800080521360FFF734FEF86011E0FFF730FE76
:102090000246FB68D31AB3F5FA7F09D97B6804229C
:1020A000C3F888207B68E022C3F8842001233DE048
:1020B0007B681B6803F580531B6803F00103002B4A
:1020C000E4D1786800F018FE786800F0C3FE786804
:1020D00000F019FF7B685B681A460021786800F001
:1020E00081FE7B681B68DA6B7B681B6842F40272B6
:1020F000DA637B681B68D3F80C117B681A680F4B96
:102100000B43C2F80C317B681B68D3F810217B6845
:102110001B6842F40312C3F810217B680022C3F845
:1021200088207B681022C3F88420002318461037CB
:10213000BD4680BD0038024000380140600002000A
:1021400080B584B000AF78607B68D3F88430102B02
:1021500050D17B682022C3F884207B680422DA6691
:10216000786800F0F9F97B681B681A687B681B685F
:1021700042F008021A607B681B681B68FB60012044
:10218000FFF7C2FD7B681B68FA681A607B681B68F2
:102190001A687B681B6842F004021A607B681B683F
:1021A0001B68FB600120FFF7AFFD7B681B68FA68C6
:1021B0001A60786800F03CFC7B681B6803F580536C
:1021C0009B697A68126843F4005302F58052936168
:1021D0007B681B6803F580539B697A68126843F03B
:1021E000020302F5805293617B684022C3F8842089
:1021F000002300E0012318461037BD4680BD80B59E
:1022000084B000AF78607B68D3F88430402B4AD12B
:102210007B682022C3F884207B681B6803F5805309
:102220009B697A68126823F4005302F58052936127
:102230007B681B6803F580539B697A68126823F0FA
:10224000020302F5805293617B681B681A687B6801
:102250001B6822F004021A607B681B681B68FB6025
:102260000120FFF751FD7B681B68FA681A607868E7
:1022700000F0DEFB7B681B681A687B681B6822F035
:1022800008021A607B681B681B68FB600120FFF76F
:102290003BFD7B681B68FA681A607B681022C3F8F4
:1022A0008420002300E0012318461037BD4680BD7E
:1022B00080B586B000AFF860B9607A60BB68002B6B
:1022C00009D1FB68D3F8883043F00102FB68C3F8FA
:1022D000882001237CE0FB68D3F88430402B76D142
:1022E0000022B968F86800F07DFE0346002B09D093
:1022F000FB68D3F8883043F00202FB68C3F88820FB
:10230000012365E0BFF34F8F00BFFB689A6AFB684B
:10231000063253F822307B61FB689B6A5A1CFB68CB
:102320009A62FB689B6A032B04D9FB689B6A1A1F9D
:10233000FB689A62FB68996AFB681A68FB68063159
:1023400053F8213002F580525360FFF7D1FC386119
:1023500037E0FB681B6803F580535B6903F40053A7
:10236000002B11D0FB68D3F8883043F00802FB68DB
:10237000C3F88820FB681B6803F580535A69FB6823
:10238000C3F88C20012323E07B68B3F1FF3F18D012
:10239000FFF7AEFC02463B69D31A7A689A4202D331
:1023A0007B68002B0DD1FB68D3F8883043F0040222
:1023B000FB68C3F888207B694FF040521A60012304
:1023C00006E07B691B68002BC3DB002300E00123D0
:1023D00018461837BD4680BD80B588B000AF78601C
:1023E000396000237B610023FB743B68002B09D11B
:1023F0007B68D3F8883043F001027B68C3F88820FB
:102400000123A4E07B68D3F88430402B01D0012362
:102410009DE07B68DB6DFB617B68FA69123253F8E3
:102420002230BB617B68DB6EC3F10403FB6066E0B6
:10243000BB691B6803F48073002B07D0BB69DA69A2
:102440007B689A67BB699A697B685A67BB691B6836
:1024500003F40073002B03D17B68DB6F002B3CD0AF
:10246000BB691B6803F40073002B05D07B68002256
:102470001A667B6800225A66BB691B681B0CC3F393
:102480000D03BB60BB691B6803F48073002B05D090
:10249000BB691A687B681A670123FB74BB699A6879
:1024A000BB691A627B6803F17C007B6803F18001E1
:1024B000BB691B6A1A46BB689BB204F0BDFA7B6815
:1024C0001B6E5A1C7B681A667B685A6EBB681A447E
:1024D0007B685A66BB6900221A62FB690133FB61A3
:1024E000FB69032B02D9FB69043BFB617B68FA693A
:1024F000123253F82230BB617B6901337B61BB69C7
:102500001B68002B06DB7A69FB689A4202D2FB7CCF
:10251000002B8DD07B68DA6E7B691A447B68DA66A3
:102520007B68DB6E002B02D0786800F015F87B68C2
:10253000FA69DA65FB7C012B08D17B68DA6F3B68AE
:102540001A607B680022DA67002300E00123184646
:102550002037BD4680BD000080B588B000AF7860F0
:102560000023BB600123FB747B689B6EFB617B686F
:10257000FA69123253F822307B617B68DB6EBB61F3
:1025800042E07B691B6A002B12D107F10803184651
:1025900004F022FABB68002B02D10023FB7407E091
:1025A000BB681A467B691A62BB681A467B699A60E7
:1025B000FB7C002B28D07B689B6D002B06D17B68B1
:1025C0005A69264B13437A69536005E07B685B695F
:1025D00043F480427B695A607B691B6843F0004288
:1025E0007B691A60FB690133FB61FB69032B02D92C
:1025F000FB69043BFB617B68FA69123253F82230B5
:102600007B61BB69013BBB61BB69002B02D0FB7CDA
:10261000002BB6D17B68DB6EBA699A421AD0FB698F
:10262000033303F00303FB60BFF35F8F00BF7B68DE
:102630001969FA6813469B001344DB00CA187B68CB
:102640001B6803F580539A607B68FA699A667B6819
:10265000BA69DA6600BF2037BD4680BD0040008001
:1026600080B586B000AFF860B9607A603B60FB6807
:102670001B681B697B617B6903F01C037B61BB6882
:10268000DB029BB27A6913437B617B689B0103F495
:10269000F8637A6913437B617B6923F002037B61F2
:1026A0007B6943F001037B61FB681B687A691A61EF
:1026B000FFF71EFB38610DE0FFF71AFB02463B698E
:1026C000D31AB3F5803F01D3012310E0FB681B68E8
:1026D0001B697B617B6903F00103002BECD1FB6874
:1026E0001B685B699BB21A463B681A600023184658
:1026F0001837BD4680BD80B586B000AFF860B960C0
:102700007A603B60FB681B681B697B617B6903F037
:102710001C037B61BB68DB029BB27A6913437B615C
:102720007B689B0103F4F8637A6913437B617B69DF
:1027300043F002037B617B6943F001037B613B68EB
:102740009AB2FB681B685A61FB681B687A691A6158
:10275000FFF7CEFA38610DE0FFF7CAFA02463B698F
:10276000D31AB3F5803F01D3012309E0FB681B684E
:102770001B697B617B6903F00103002BECD1002313
:1027800018461837BD4680BD80B483B000AF78606E
:1027900039603B68002B01D10123E6E07B681B68B0
:1027A0001B6803F01003002B14BF01230023DBB2CE
:1027B0001A463B6883F828207B681B681B6803F077
:1027C00060023B685A627B681B681B6803F40073F5
:1027D000002B0CBF01230023DBB21A463B6883F8B1
:1027E00020207B681B681B6803F48033002B14BF18
:1027F00001230023DBB21A463B68DA777B681B684B
:102800001B6803F40053002B0CBF01230023DBB231
:102810001A463B689A777B681B681B6803F48053F1
:10282000002B14BF01230023DBB21A463B681A7742
:102830007B681B681B6803F400623B689A617B68D5
:102840001B681B6803F480423B685A617B681B6805
:102850001B6803F48003002B0CBF01230023DBB2B1
:102860001A463B685A747B681B681B6803F40003B4
:10287000002B0CBF01230023DBB21A463B681A74FD
:102880007B681B681B6803F08003002B14BF0123C7
:102890000023DBB21A463B68DA737B681B681B684F
:1028A00003F460223B689A607B681B681B6803F432
:1028B0008063002B14BF01230023DBB21A463B6860
:1028C0001A717B681B681B6803F00073002B14BF30
:1028D00001230023DBB21A463B689A737B681B68AE
:1028E0009B6903F00203002B14BF01230023DBB21A
:1028F0001A463B6883F854207B681B689B6903F089
:102900008003002B0CBF01230023DBB21A463B6877
:1029100083F84C207B681B689B6903F030023B689E
:102920001A657B681B689B691B0C9AB23B689A64AA
:102930007B681B689B6903F00403002B14BF012311
:102940000023DBB21A463B6883F856207B681B687D
:102950009B6903F00803002B14BF01230023DBB2A3
:102960001A463B6883F85520002318460C37BD46AD
:102970005DF8047B704780B582B000AF7860396045
:102980003B68002B01D101230BE07B68D3F8843036
:10299000102B05D13968786800F070F8002300E04A
:1029A000012318460837BD4680BD000080B584B0BD
:1029B00000AF78607B681B681B69FB60FB6823F0D5
:1029C0001C03FB6001F026FFB860BB68144A934209
:1029D00004D8FB6843F00803FB6019E0BB68114AA8
:1029E000934204D2FB6843F00C03FB6010E0BB6829
:1029F0000D4A93420CD9BB680C4A934204D8FB6839
:102A000043F00403FB6003E0FB6843F01003FB604A
:102A10007B681B68FA681A6100BF1037BD4680BD2D
:102A2000BF0E160200879303FFE0F5057FD1F00883
:102A300080B584B000AF78600023FB607B681B68C2
:102A400003F580539B697A68126843F4801302F59A
:102A5000805293617B681B6803F580539B69FB6020
:102A60000120FFF751F97B681A68FB6802F5805274
:102A7000936100BF1037BD4680BD000080B584B0B3
:102A800000AF786039607B681B681B68FB60FA6880
:102A9000534B1340FB603B689B7B5B063A68127CA0
:102AA000002A02D14FF4000200E0002213433A68EA
:102AB000527C002A02D14FF4800200E000221A4327
:102AC0003B689B681A433B68DB7F1B041A433B68E7
:102AD0005B6913433A68927F002A02D14FF4005297
:102AE00000E000221A433B681B7F1B031A433B682C
:102AF0009B691A433B681B799B0213433A6892F81F
:102B00002020002A02D14FF4007200E000221A4374
:102B10003B68DB7BDB011A433B685B6A1A433B681B
:102B200093F828301B011343FA681343FB607B685A
:102B30001B68FA681A607B681B681B68FB600120D1
:102B4000FFF7E2F87B681B68FA681A607B681B680D
:102B50009B69FB60FA684FF641731340FB603B686A
:102B60009B6C1B043A6892F84C20002A01D1802209
:102B700000E000221A433B681B6D13433A6892F849
:102B80005520012A01D1082200E0002213433A68AF
:102B900092F85620012A01D1042200E000221343BA
:102BA0003A6892F85420012A01D1022200E0002262
:102BB0001343FA681343FB607B681B68FA689A61E9
:102BC0007B681B689B69FB600120FFF79DF87B68B1
:102BD0001B68FA689A6100BF1037BD4680BD00BF10
:102BE0000F8120FD80B584B000AF786039607B68CC
:102BF0001B6803F580539B69FB60FA683D4B1340EB
:102C0000FB603B681B7B002B02D14FF0806200E031
:102C100000223B685B7B5B0613433A68527F002AC5
:102C200002D14FF4801200E000221A433B689B7BE4
:102C30005B051A433B685B691A433B681B7FDB01FA
:102C40001A433B689B7F9B011A433B681B6A1A43EC
:102C50003B6893F824309B001343FA681343FB60EE
:102C60007B681B6803F580531A46FB6893617B6899
:102C70001B6803F580539B69FB600120FFF744F854
:102C80007B681B6803F580531A46FB6893613B68B9
:102C90001B795A063B689B681A433B689B691A4339
:102CA0003B681B691A433B6893F82530DB011A43E4
:102CB0003B689B6A9B001A433B681B6813437A6816
:102CC000126843F4000302F5805213607B681B68AE
:102CD00003F580531B68FB600120FFF715F87B6844
:102CE0001B6803F580531A46FB68136000BF10375A
:102CF000BD4680BD233FDEF880B5A6B000AF78604A
:102D0000012387F84430012387F845300023FB6313
:102D1000002387F85330012387F85230002387F8C7
:102D20005030012387F84230012387F838300023E0
:102D300087F85430002387F843300023BB65002315
:102D400087F85C300023FB67002387F8803000237E
:102D5000C7F88430002387F88A30002387F888304A
:102D60004FF48043BB644FF40063FB64002387F897
:102D7000893007F1340319467868FFF77FFE012395
:102D80003B7501237B75012387F825300123BB7533
:102D90000023FB61002387F82430002387F82630C6
:102DA0000023BB62012387F82C3001233B734FF4CF
:102DB00080333B614FF480033B624FF40053BB61AF
:102DC000012387F82D3000233B630023BB6007F10C
:102DD000080319467868FFF705FF00BF9837BD461E
:102DE00080BD000080B487B000AFF860B9607A6041
:102DF0007B6805331B781B027A6804321278134310
:102E00007B61BA68114B13441A467B6913607B6877
:102E100003331B781A067B6802331B781B041A43A2
:102E20007B6801331B781B0213437A6812781343C3
:102E30007B61BA68064B13441A467B69136000BF76
:102E40001C37BD465DF8047B704700BF40800240E0
:102E50004480024080B485B000AF78600023FB60FE
:102E60003EE07B68D968FA6813469B001344DB0098
:102E70000B44BB60BB6800221A60BB6800225A602A
:102E8000BB6800229A60BB680022DA60B9687B6880
:102E9000FA68063243F82210BB681B6843F48012BC
:102EA000BB681A60FB68022B0CD87B68D968FB688A
:102EB0005A1C13469B001344DB000B441A46BB68A4
:102EC000DA6004E07B68DB681A46BB68DA60BB68DE
:102ED0001B6843F44002BB681A60FB680133FB6067
:102EE000FB68032BBDD97B6800229A627B68DA6895
:102EF0007B681B6803F580531A6100BF1437BD4619
:102F00005DF8047B704780B485B000AF7860002323
:102F1000FB6048E07B681969FA6813469B0013441C
:102F2000DB000B44BB60BB6800221A60BB68002258
:102F30005A60BB6800229A60BB680022DA60BB68F6
:102F400000221A62BB6800225A62BB684FF000423E
:102F50001A607B685B6943F48042BB685A60BB6857
:102F60005B6823F00042BB685A60B9687B68FA6806
:102F7000123243F82210FB68022B0CD87B681969C7
:102F8000FB685A1C13469B001344DB000B441A4693
:102F9000BB68DA6004E07B681B691A46BB68DA60CC
:102FA000FB680133FB60FB68032BB3D97B6800220D
:102FB000DA657B6800221A667B6800229A667B6865
:102FC0000022DA667B6800229A657B681A697B6852
:102FD0001B6803F58053DA6000BF1437BD465DF807
:102FE000047B704780B491B000AFF860B9607A603C
:102FF000FB6818337B627B6A1B69FB637B6A1B6916
:103000003B6200237B637B6AFA6B53F822303B639D
:10301000BB689B68FB620023BB623B6B1B6803F0D1
:103020000043B3F1004F07D07A6AFB6B04339B0077
:1030300013445B68002B01D0022311E17B6B013349
:103040007B63FB6A1B681A463B6B9A603B6B5A6852
:10305000864B1340FA6A52681A433B6B5A60BB684E
:103060001B6803F00103002B08D03B6B1B6823F4A3
:103070004002BB685B691A433B6B1A60BB681B6804
:1030800003F02003002B08D03B6B1B6823F0406249
:10309000BB681B691A433B6B1A60BB681B6803F073
:1030A0000403002B05D03B6B1B6843F080023B6B95
:1030B0001A603B6B1B6843F080523B6B1A6082E0E6
:1030C0003B6B1B6823F000523B6B1A607B68002B44
:1030D00006D03B6B1B6843F080423B6B1A6005E0F7
:1030E0003B6B1B6823F080423B6B1A60FB6B013328
:1030F000FB63FB6B032B02D9FB6B043BFB637B6A1B
:10310000FA6B53F822303B633B6B1B6803F00043C0
:10311000B3F1004F07D07A6AFB6B04339B00134472
:103120005B68002B29D03B6AFB637B6AFA6B53F820
:1031300022303B630023BB6319E0BFF35F8F00BF06
:103140003B6B1B6823F000423B6B1A60FB6B013347
:10315000FB63FB6B032B02D9FB6B043BFB637B6ABA
:10316000FA6B53F822303B63BB6B0133BB63BA6B22
:103170007B6B9A42E1D3022372E03B6B1B6823F026
:1031800080523B6B1A607B6B01337B63FB6A9B68ED
:10319000FB62FB6A1B681A463B6B9A603B6B5A6882
:1031A000324B1340FA6A52681A433B6B5A60BB6A4F
:1031B0000133BB62BFF35F8F00BF3B6B1B6843F003
:1031C00000423B6B1A60FB6A9B68002B7FF478AF70
:1031D0007B68002B06D03B6B1B6843F080423B6B47
:1031E0001A6005E03B6B1B6823F080423B6B1A6062
:1031F0003B6B1B6843F000523B6B1A607B6A3A6A78
:1032000053F822303B63BFF35F8F00BF3B6B1B68FB
:1032100043F000423B6B1A607B6A5A6A796AFB6B27
:1032200004339B000B445A607B6AFA6B1A61EFF31C
:1032300010833B613B69FB6101237B617B6983F305
:10324000108800BF7B6A9A6ABB6A13445A1C7B6A67
:103250009A62FB69BB61BB6983F3108800BF0023DE
:1032600018464437BD465DF8047B704700E0FFFF19
:1032700080B586B000AFF860B960C7E90023274B7E
:103280001B7D012B01D1022343E0244B01221A753F
:103290004CF2503000F078F80346FB75FB7D002BB4
:1032A00033D1FB68032B23D801A252F823F000BFCF
:1032B000C1320008CD320008D9320008E5320008DA
:1032C0003B781946B86800F021F912E03B881946AE
:1032D000B86800F0F5F80CE03B681946B86800F0F3
:1032E000C9F806E0D7E90023B86800F08DF800E0DF
:1032F00000BF4CF2503000F047F80346FB75084B16
:103300001B69074A23F001031361044B00221A755D
:10331000FB7D18461837BD4680BD00BF70070020F2
:10332000003C024080B483B000AF0023FB710B4B24
:103330001B69002B0BDA094B094A5A60074B094AF3
:103340005A60064B1B69002B01DA0123FB71FB79E4
:1033500018460C37BD465DF8047B7047003C0240C0
:1033600023016745AB89EFCD80B400AF054B1B69E6
:10337000044A43F00043136100231846BD465DF83C
:10338000047B7047003C024080B584B000AF786099
:103390000023FB601A4B00229A61FEF7A9FCF8603B
:1033A00010E07B68B3F1FF3F0CD07B68002B07D0A7
:1033B000FEF79EFC0246FB68D31A7A689A4201D255
:1033C000032319E00F4BDB6803F48033002BE8D1B3
:1033D0000C4BDB6803F0F203002B03D000F0BAF8CB
:1033E000012309E0074BDB6803F00103002B02D047
:1033F000044B0122DA60002318461037BD4680BD19
:1034000070070020003C024080B485B000AFF86037
:10341000C7E90023164B1B69154A23F44073136157
:10342000134B1B69124A43F440731361104B1B6921
:103430000F4A43F001031361FB683A681A60BFF357
:103440006F8F00BFD7E900014FF000024FF000037B
:103450000A000023F968043113460B60BFF34F8F55
:1034600000BF00BF1437BD465DF8047B704700BF46
:10347000003C024080B483B000AF786039600F4BED
:103480001B690E4A23F4407313610C4B1B690B4AF2
:1034900043F400731361094B1B69084A43F00103AD
:1034A00013617B683A681A60BFF34F8F00BF00BF9B
:1034B0000C37BD465DF8047B704700BF003C0240FE
:1034C00080B483B000AF78600B467B800E4B1B69E5
:1034D0000D4A23F4407313610B4B1B690A4A43F4F2
:1034E00080731361084B1B69074A43F001031361A2
:1034F0007B687A881A80BFF34F8F00BF00BF0C37FC
:10350000BD465DF8047B7047003C024080B483B048
:1035100000AF78600B46FB700D4B1B690C4A23F41F
:10352000407313610A4B0A4A1B691361084B1B69FC
:10353000074A43F0010313617B68FA781A70BFF3FE
:103540004F8F00BF00BF0C37BD465DF8047B70474E
:10355000003C024080B400AF214BDB6803F0020363
:10356000002B05D01F4B9B6943F020031D4A93613C
:103570001B4BDB6803F01003002B05D0194B9B6934
:1035800043F01003174A9361154BDB6803F02003E7
:10359000002B05D0134B9B6943F00803114A93613C
:1035A0000F4BDB6803F04003002B05D00D4B9B69EC
:1035B00043F004030B4A9361094BDB6803F080037B
:1035C000002B05D0074B9B6943F00203054A93612A
:1035D000034BF222DA6000BFBD465DF8047B704702
:1035E000003C02407007002080B584B000AF7860D6
:1035F00039600023BB60304B1B7D012B01D10223BE
:1036000056E02D4B01221A754CF25030FFF7BCFEEC
:103610000346FB73FB7B002B46D13B684FF0FF3228
:103620001A607B681B68012B15D17B681B69DAB2B5
:103630007B685B681946104600F044F84CF2503045
:10364000FFF7A2FE0346FB731C4B1A691B491C4B78
:1036500013400B6128E07B689B68BB601CE07B68C3
:103660001B69DBB21946B86800F068F84CF25030BC
:10367000FFF78AFE0346FB73104B1B690F4A23F0CA
:10368000FA031361FB7B002B03D03B68BA681A6016
:103690000AE0BB680133BB607B68DA687B689B68C3
:1036A0001344BA689A42DAD3034B00221A75FB7BA3
:1036B00018461037BD4680BD70070020003C024010
:1036C000FB7FFFFF80B483B000AF03463960FB711E
:1036D000194B1B69184A23F4407313613B68032B91
:1036E00007D1154B1A69144948F2040313430B61BF
:1036F0000FE03B68022B06D10F4B1B690E4A43F4C7
:103700000043136105E00C4B1B690B4A43F00403B3
:103710001361094B1A69FB791B021343064A43F4F0
:1037200080331361BFF34F8F00BF00BF0C37BD461E
:103730005DF8047B704700BF003C024080B485B058
:1037400000AF78600B46FB700023FB60FB78002B1A
:1037500002D10023FB6010E0FB78012B03D14FF472
:103760008073FB6009E0FB78022B03D14FF40073F8
:10377000FB6002E04FF44073FB607B680B2B02D9C7
:103780007B6804337B60154B1B69144A23F4407338
:103790001361124B1A691149FB6813430B610F4BFC
:1037A0001B690E4A23F0F80313610C4B1A697B68FE
:1037B000DB001343094A43F002031361074B1B6903
:1037C000064A43F480331361BFF34F8F00BF00BF3D
:1037D0001437BD465DF8047B704700BF003C0240D3
:1037E00080B489B000AF786039600023FB610023AA
:1037F0007B6100233B610023BB610023FB6175E11A
:103800000122FB6902FA03F37B613B681B687A695A
:1038100013403B613A697B699A4240F064813B689E
:103820005B6803F00303012B05D03B685B6803F082
:103830000303022B30D17B689B68BB61FB695B0093
:10384000032202FA03F3DB43BA691340BB613B680E
:10385000DA68FB695B0002FA03F3BA691343BB61E0
:103860007B68BA699A607B685B68BB610122FB690F
:1038700002FA03F3DB43BA691340BB613B685B6840
:103880001B0903F00102FB6902FA03F3BA6913434F
:10389000BB617B68BA695A603B685B6803F00303ED
:1038A000032B17D07B68DB68BB61FB695B000322DD
:1038B00002FA03F3DB43BA691340BB613B689A68C1
:1038C000FB695B0002FA03F3BA691343BB617B68CF
:1038D000BA69DA603B685B6803F00303022B23D10B
:1038E000FB69DA087B68083253F82230BB61FB6958
:1038F00003F007039B000F2202FA03F3DB43BA69CC
:103900001340BB613B681A69FB6903F007039B0026
:1039100002FA03F3BA691343BB61FB69DA087B68F7
:103920000832B96943F822107B681B68BB61FB69E8
:103930005B00032202FA03F3DB43BA691340BB6165
:103940003B685B6803F00302FB695B0002FA03F368
:10395000BA691343BB617B68BA691A603B685B68EC
:1039600003F44033002B00F0BE80664B5B6C654A6D
:1039700043F480435364634B5B6C03F48043FB600C
:10398000FB68614AFB699B08023352F82330BB6134
:10399000FB6903F003039B000F2202FA03F3DB43EE
:1039A000BA691340BB617B68584A934237D07B6841
:1039B000574A934231D07B68564A93422BD07B685A
:1039C000554A934225D07B68544A93421FD07B6866
:1039D000534A934219D07B68524A934213D07B6872
:1039E000514A93420DD07B68504A934207D07B687E
:1039F0004F4A934201D1092312E00A2310E0082321
:103A00000EE007230CE006230AE0052308E0042368
:103A100006E0032304E0022302E0012300E0002388
:103A2000FA6902F0030292009340BA691343BB6142
:103A30003549FB699B080233BA6941F823203D4BA5
:103A40009B68BB613B69DB43BA691340BB613B6860
:103A50005B6803F48013002B03D0BA693B691343FE
:103A6000BB61344ABB699360324BDB68BB613B6925
:103A7000DB43BA691340BB613B685B6803F4001326
:103A8000002B03D0BA693B691343BB61294ABB6968
:103A9000D360284B5B68BB613B69DB43BA69134069
:103AA000BB613B685B6803F40033002B03D0BA6949
:103AB0003B691343BB611F4ABB6953601D4B1B68C5
:103AC000BB613B69DB43BA691340BB613B685B6820
:103AD00003F48033002B03D0BA693B691343BB6105
:103AE000144ABB691360FB690133FB61FB690F2B4F
:103AF0007FF686AE00BF00BF2437BD465DF8047B6D
:103B0000704700BF0038024000380140000002400A
:103B10000004024000080240000C02400010024075
:103B20000014024000180240001C02400020024025
:103B300000240240003C014080B483B000AF7860B4
:103B40000B467B8013467B707B78002B03D07A88F2
:103B50007B689A6103E07B881A047B689A6100BFE6
:103B60000C37BD465DF8047B704780B485B000AF6C
:103B700078600B467B807B685B69FB607A88FB68BA
:103B800013401A04FB68D9437B880B401A437B68B7
:103B90009A6100BF1437BD465DF8047B704780B55D
:103BA00086B002AF78607B68002B01D1012308E169
:103BB0007B681B68BB607B6893F89534DBB2002B95
:103BC00006D17B68002283F894247868FDF752FDC3
:103BD0007B68032283F89524BB68B3F1A04F02D120
:103BE0007B6800229A717B681B68184601F096FF7B
:103BF0007B6818687B681A7C8DF8002004330ECB34
:103C000001F032FF0346002B05D07B68022283F8C7
:103C100095240123D5E07B681B680021184601F03C
:103C20008EFF0346002B05D07B68022283F8952483
:103C30000123C6E00023FB734AE0FA7B7968134650
:103C4000DB0013449B000B44153301221A70FA7BEE
:103C500079681346DB0013449B000B441433FA7B52
:103C60001A70FA7BFB7B98B279681346DB00134429
:103C70009B000B442E3302461A80FA7B7968134668
:103C8000DB0013449B000B44183300221A70FA7BAC
:103C900079681346DB0013449B000B441C3300225D
:103CA0001A60FA7B79681346DB0013449B000B44CF
:103CB000203300221A60FA7B79681346DB00134434
:103CC0009B000B44243300221A60FB7B0133FB73FF
:103CD0007B681B79FA7B9A42AFD30023FB7344E0E5
:103CE000FA7B79681346DB0013449B000B4403F214
:103CF000552300221A70FA7B79681346DB001344BF
:103D00009B000B4403F51573FA7B1A70FA7B7968F4
:103D10001346DB0013449B000B4403F5167300228B
:103D20001A70FA7B79681346DB0013449B000B443E
:103D300003F5177300221A60FA7B79681346DB00DB
:103D400013449B000B4403F5187300221A60FA7B9E
:103D500079681346DB0013449B000B4403F5197389
:103D600000221A60FB7B0133FB737B681B79FA7BB3
:103D70009A42B5D37B6818687B681A7C8DF800205E
:103D800004330ECB01F028FF0346002B05D07B68DF
:103D9000022283F89524012313E07B6800225A74E1
:103DA0007B68012283F895247B681B7B012B02D161
:103DB000786800F00BF87B681B68184602F0E3F89F
:103DC000002318461037BD4680BD000080B485B082
:103DD00000AF78607B681B68FB607B680122C3F8DA
:103DE000D8247B68002283F8CC24FB689B6943F0CD
:103DF0000062FB689A61FB685A6D054B1343FA68D1
:103E00005365002318461437BD465DF8047B7047A0
:103E10000300001080B400AF054B1B68044A43F454
:103E20008073136000BFBD465DF8047B704700BF20
:103E30000070004080B582B000AF00237B60234B50
:103E40001B6C224A43F080531364204B1B6C03F01D
:103E500080533B603B681E4B1B681D4A43F4803314
:103E60001360FDF745FF786009E0FDF741FF02466A
:103E70007B68D31AB3F57A7F01D9032322E0144B70
:103E80005B6803F48033B3F5803FEED1104B1B68C1
:103E90000F4A43F400331360FDF72AFF786009E00E
:103EA000FDF726FF02467B68D31AB3F57A7F01D966
:103EB000032307E0064B5B6803F40033B3F5003FD0
:103EC000EED1002318460837BD4680BD00380240B9
:103ED0000070004080B586B000AF78600023FB75AD
:103EE0007B68002B01D101239BE27B681B6803F0F8
:103EF0000103002B00F08780964B9B6803F00C03B6
:103F0000042B0CD0934B9B6803F00C03082B12D1AD
:103F1000904B5B6803F48003B3F5800F0BD18D4B9E
:103F20001B6803F40033002B6CD07B685B68002BAC
:103F300068D1012375E27B685B68B3F5803F06D1E9
:103F4000844B1B68834A43F4803313602EE07B6804
:103F50005B68002B0CD17F4B1B687E4A23F48033B7
:103F600013607C4B1B687B4A23F4802313601DE0A5
:103F70007B685B68B3F5A02F0CD1764B1B68754A44
:103F800043F480231360734B1B68724A43F48033FD
:103F900013600BE06F4B1B686E4A23F48033136091
:103FA0006C4B1B686B4A23F4802313607B685B684F
:103FB000002B13D0FDF79CFE386108E0FDF798FE5A
:103FC00002463B69D31A642B01D9032329E2614BD2
:103FD0001B6803F40033002BF0D014E0FDF788FEDB
:103FE000386108E0FDF784FE02463B69D31A642B72
:103FF00001D9032315E2574B1B6803F40033002B50
:10400000F0D100E000BF7B681B6803F00203002BC7
:1040100069D0504B9B6803F00C03002B0BD04D4B29
:104020009B6803F00C03082B1CD14A4B5B6803F41C
:104030008003002B16D1474B1B6803F00203002BB3
:1040400005D07B68DB68012B01D00123E9E1414BFE
:104050001B6823F0F8027B681B69DB003D491343B2
:104060000B6040E07B68DB68002B23D0394B1B687A
:10407000384A43F001031360FDF73AFE386108E067
:10408000FDF736FE02463B69D31A022B01D9032302
:10409000C7E1304B1B6803F00203002BF0D02D4B1F
:1040A0001B6823F0F8027B681B69DB002949134376
:1040B0000B6018E0274B1B68264A23F001031360AE
:1040C000FDF716FE386108E0FDF712FE02463B6977
:1040D000D31A022B01D90323A3E11E4B1B6803F063
:1040E0000203002BF0D17B681B6803F00803002B50
:1040F00038D07B685B69002B19D0164B5B6F154A73
:1041000043F001035367FDF7F3FD386108E0FDF765
:10411000EFFD02463B69D31A022B01D9032380E14C
:104120000C4B5B6F03F00203002BF0D01AE0094B3D
:104130005B6F084A23F001035367FDF7D9FD38612F
:104140000AE0FDF7D5FD02463B69D31A022B03D9DD
:10415000032366E100380240924B5B6F03F00203D9
:10416000002BEED17B681B6803F00403002B00F0EA
:10417000A4808C4B1B6C03F08053002B0DD1894B1A
:104180001B6C884A43F080531364864B1B6C03F00E
:104190008053BB60BB680123FB75834B1B6803F432
:1041A0008073002B18D1804B1B687F4A43F48073C7
:1041B0001360FDF79DFD386108E0FDF799FD0246AB
:1041C0003B69D31A642B01D903232AE1764B1B6880
:1041D00003F48073002BF0D07B689B68012B06D121
:1041E000704B1B6F6F4A43F0010313672DE07B6830
:1041F0009B68002B0CD16B4B1B6F6A4A23F00103A9
:104200001367684B1B6F674A23F0040313671CE0B6
:104210007B689B68052B0CD1624B1B6F614A43F096
:10422000040313675F4B1B6F5E4A43F00103136780
:104230000BE05C4B1B6F5B4A23F001031367594B88
:104240001B6F584A23F0040313677B689B68002B9D
:1042500015D0FDF74DFD38610AE0FDF749FD024636
:104260003B69D31A41F28832934201D90323D8E043
:104270004C4B1B6F03F00203002BEED014E0FDF754
:1042800037FD38610AE0FDF733FD02463B69D31A7A
:1042900041F28832934201D90323C2E0414B1B6FA4
:1042A00003F00203002BEED1FB7D012B05D13D4B2A
:1042B0001B6C3C4A23F0805313647B689B69002B82
:1042C00000F0AE80374B9B6803F00C03082B6DD0D9
:1042D0007B689B69022B4BD1324B1B68314A23F020
:1042E00080731360FDF704FD386108E0FDF700FD01
:1042F00002463B69D31A022B01D9032391E0294BD3
:104300001B6803F00073002BF0D17B68DA697B68CF
:104310001B6A1A437B685B6A9B011A437B689B6A32
:104320005B08013B1B041A437B68DB6A1B061A43CC
:104330007B681B6B1B071B4913434B60194B1B68A6
:10434000184A43F080731360FDF7D2FC386108E02F
:10435000FDF7CEFC02463B69D31A022B01D9032399
:104360005FE0104B1B6803F00073002BF0D057E0A8
:104370000C4B1B680B4A23F080731360FDF7B8FCED
:10438000386108E0FDF7B4FC02463B69D31A022B02
:1043900001D9032345E0034B1B6803F00073002B96
:1043A000F0D13DE000380240007000401F4B5B68D8
:1043B000FB607B689B69012B30D0FB6803F48002B3
:1043C0007B68DB699A4229D1FB6803F03F027B6876
:1043D0001B6A9A4222D1FA6847F6C07313407A6882
:1043E000526A9201934219D1FB6803F440327B6810
:1043F0009B6A5B08013B1B049A420FD1FB6803F0E8
:1044000070627B68DB6A1B069A4207D1FB6803F087
:10441000E0427B681B6B1B079A4201D0012300E03E
:10442000002318461837BD4680BD00BF0038024043
:1044300080B584B000AF786039600023FB607B6892
:10444000002B01D10123D0E06A4B1B6803F00F035E
:104450003A689A4210D9674B1B6823F00F026549EE
:104460003B6813430B60634B1B6803F00F033A6810
:104470009A4201D00123B8E07B681B6803F0020375
:10448000002B20D07B681B6803F00403002B05D0B1
:10449000594B9B68584A43F4E05393607B681B6810
:1044A00003F00803002B05D0534B9B68524A43F49A
:1044B00060439360504B9B6823F0F0027B689B68DD
:1044C0004D4913438B607B681B6803F00103002B8D
:1044D00040D07B685B68012B07D1474B1B6803F416
:1044E0000033002B15D101237FE07B685B68022B32
:1044F00007D1414B1B6803F00073002B09D1012346
:1045000073E03D4B1B6803F00203002B01D1012334
:104510006BE0394B9B6823F003027B685B6836498C
:1045200013438B60FDF7E4FBF8600AE0FDF7E0FB66
:104530000246FB68D31A41F28832934201D9032321
:1045400053E02D4B9B6803F00C027B685B689B007B
:104550009A42EBD1274B1B6803F00F033A689A424B
:1045600010D2244B1B6823F00F0222493B681343EF
:104570000B60204B1B6803F00F033A689A4201D08E
:10458000012332E07B681B6803F00403002B08D092
:10459000194B9B6823F4E0527B68DB681649134390
:1045A0008B607B681B6803F00803002B09D0124B5B
:1045B0009B6823F460427B681B69DB000E49134350
:1045C0008B6000F021F802460B4B9B681B0903F03F
:1045D0000F030A49CB5C22FA03F3094A1360094B23
:1045E0001B681846FDF740FB002318461037BD46F0
:1045F00080BD00BF003C024000380240484701082F
:1046000000000020040000202DE9B04F94B000AF5E
:1046100000237B640023FB6400233B640023BB6412
:10462000794B9B6803F00C03082B0DD0082B00F28C
:10463000E180002B02D0042B03D0DBE0734BBB6482
:10464000DBE0734BBB64D8E06F4B5B6803F03F0368
:104650007B646D4B5B6803F48003002B63D06A4B73
:104660005B689B090022BB63FA63BB6BC3F308035F
:104670003B6300237B63D7E90C4522462B464FF072
:1046800000004FF00001590141EAD2615001024699
:104690000B462146511A3961294663EB01037B61C0
:1046A0004FF000024FF00003D7E904AB59468B01ED
:1046B000514643EA916351468A015146B2EB0108E3
:1046C000594663EB01094FF000024FF000034FEA37
:1046D000C90343EA58734FEAC802904699462346F5
:1046E00018EB0303BB602B4649EB0303FB604FF061
:1046F00000024FF00003D7E9024529464B0221464C
:1047000043EAD15321464A02104619467B6C0022E7
:10471000BB62FA62D7E90A23FBF7E2FD02460B46C9
:104720001346FB6458E0384B5B689B09002218462F
:104730001146C0F308033B6200237B62D7E9088976
:1047400042464B464FF000004FF00001590141EA4C
:10475000D261500102460B464146B2EB010A49467E
:1047600063EB010B4FF000024FF000034FEA8B1395
:1047700043EA9A634FEA8A12B2EB0A0463EB0B0531
:104780004FF000024FF00003EB0043EA5473E200E5
:1047900014461D464346E3183B604B4645EB030376
:1047A0007B604FF000024FF00003D7E90045294637
:1047B0008B02214643EA915321468A02104619464C
:1047C0007B6C0022BB61FA61D7E90623FBF788FD09
:1047D00002460B461346FB640B4B5B681B0C03F055
:1047E000030301335B003B64FA6C3B6CB2FBF3F3F5
:1047F000BB6402E0054BBB6400BFBB6C184650377E
:10480000BD46BDE8B08F00BF003802400024F40070
:1048100000127A0080B400AF034B1B681846BD46F7
:104820005DF8047B704700BF0000002080B500AF3A
:10483000FFF7F0FF0246054B9B689B0A03F0070356
:104840000349CB5C22FA03F3184680BD00380240CE
:104850005847010880B500AFFFF7DCFF0246054B63
:104860009B685B0B03F007030349CB5C22FA03F35D
:10487000184680BD003802405847010880B588B00E
:1048800000AF786000237B6100233B610023FB6065
:104890000023FB610023BB617B681B6803F00103FD
:1048A000002B12D0694B9B68684A23F40003936085
:1048B000664B9A687B685B6B644913438B607B68CB
:1048C0005B6B002B01D10123FB617B681B6803F448
:1048D0000023002B17D05D4BD3F88C3023F440120B
:1048E0007B68DB6B59491343C1F88C307B68DB6B09
:1048F000B3F5801F01D10123FB617B68DB6B002BCB
:1049000001D10123BB617B681B6803F48013002B7A
:1049100017D04E4BD3F88C3023F440027B681B6CCD
:104920004A491343C1F88C307B681B6CB3F5800F88
:1049300001D10123FB617B681B6C002B01D101239A
:10494000BB617B681B6803F08073002B01D00123DF
:10495000FB617B681B6803F02003002B00F08B8059
:104960003A4B1B6C394A43F080531364374B1B6C32
:1049700003F08053BB60BB68354B1B68344A43F47B
:1049800080731360FDF7B4F9786108E0FDF7B0F9C2
:1049900002467B69D31A642B01D903238FE32C4B86
:1049A0001B6803F48073002BF0D0284B1B6F03F4BB
:1049B00040733B613B69002B35D07B681B6B03F474
:1049C00040733A699A422ED0204B1B6F23F44073F8
:1049D0003B611E4B1B6F1D4A43F4803313671B4B17
:1049E0001B6F1A4A23F480331367184A3B69136715
:1049F000164B1B6F03F00103012B14D1FDF778F95F
:104A000078610AE0FDF774F902467B69D31A41F236
:104A10008832934201D9032351E30C4B1B6F03F0FF
:104A20000203002BEED07B681B6B03F44073B3F5DD
:104A3000407F11D1054B9B6823F4F8127B68196BFA
:104A4000044B0B40014913438B600BE000380240DC
:104A500000700040FFFCFF0FAC4B9B68AB4A23F497
:104A6000F8139360A94B1A6F7B681B6BC3F30B039E
:104A7000A64913430B677B681B6803F01003002BE8
:104A800010D0A24BD3F88C30A04A23F08073C2F828
:104A90008C309E4BD3F88C207B689B6B9B491343D7
:104AA000C1F88C307B681B6803F48043002B0AD06C
:104AB000964BD3F8903023F440327B685B6E934979
:104AC0001343C1F890307B681B6803F40043002B4C
:104AD0000AD08E4BD3F8903023F440227B689B6E33
:104AE0008A491343C1F890307B681B6803F4803314
:104AF000002B0AD0854BD3F8903023F440127B680A
:104B0000DB6E82491343C1F890307B681B6803F465
:104B10000033002B0AD07D4BD3F8903023F44002B1
:104B20007B681B6F79491343C1F890307B681B6821
:104B300003F04003002B0AD0744BD3F8903023F0DD
:104B400003027B685B6C71491343C1F890307B684A
:104B50001B6803F08003002B0AD06C4BD3F8903015
:104B600023F00C027B689B6C68491343C1F89030BA
:104B70007B681B6803F48073002B0AD0634BD3F867
:104B8000903023F030027B68DB6C60491343C1F83E
:104B900090307B681B6803F40073002B0AD05B4BDA
:104BA000D3F8903023F0C0027B681B6D5749134344
:104BB000C1F890307B681B6803F48063002B0AD037
:104BC000524BD3F8903023F440727B685B6D4F49B1
:104BD0001343C1F890307B681B6803F40063002B1B
:104BE0000AD04A4BD3F8903023F440627B689B6D27
:104BF00046491343C1F890307B681B6803F4805327
:104C0000002B0AD0414BD3F8903023F440527B68FC
:104C1000DB6D3E491343C1F890307B681B6803F499
:104C20000053002B0AD0394BD3F8903023F4404284
:104C30007B681B6E35491343C1F890307B681B6855
:104C400003F48003002B0AD0304BD3F8903023F0CC
:104C500080627B689B6F2D491343C1F890307B685D
:104C60001B6803F40013002B11D0284BD3F89030AD
:104C700023F000627B68DB6F24491343C1F8903056
:104C80007B68DB6FB3F1006F01D10123BB617B68EF
:104C90001B6803F00803002B01D00123BB617B6874
:104CA0001B6803F48023002B0AD0184BD3F89030F4
:104CB00023F040727B685B6F14491343C1F8903056
:104CC0007B681B6803F40003002B0BD00F4BD3F859
:104CD000903023F080527B68D3F880300B49134327
:104CE000C1F890307B681B6803F08063002B0FD005
:104CF000064BD3F8903023F000527B68D3F8843011
:104D000002491343C1F8903002E000BF003802406E
:104D10007B681B6803F00063002B0BD08A4BD3F831
:104D20008C3023F000727B68D3F8883086491343B7
:104D3000C1F88C307B681B6803F08053002B0BD0CC
:104D4000814BD3F88C3023F080627B68D3F88C30B1
:104D50007D491343C1F88C30FB69012B06D07B6879
:104D60001B6803F00073002B00F0D680764B1B68A5
:104D7000754A23F080631360FCF7BAFF786108E09E
:104D8000FCF7B6FF02467B69D31A642B01D90323D3
:104D900095E16D4B1B6803F00063002BF0D17B683D
:104DA0001B6803F00103002B21D07B685B6B002B99
:104DB0001DD1654BD3F884301B0C03F003033B611A
:104DC000614BD3F884301B0E03F00F03FB607B684C
:104DD0005B689A013B691B041A43FB681B061A4374
:104DE0007B689B681B0758491343C1F884307B6874
:104DF0001B6803F40023002B04D07B68DB6BB3F546
:104E0000801F0AD07B681B6803F48013002B2ED010
:104E10007B681B6CB3F5800F29D14B4BD3F88430E2
:104E20001B0C03F003033B61474BD3F884301B0F8B
:104E300003F00703FB607B685B689A013B691B0416
:104E40001A437B68DB681B061A43FB681B073E4955
:104E50001343C1F884303C4BD3F88C3023F01F024D
:104E60007B685B6A013B38491343C1F88C307B682F
:104E70001B6803F08073002B1DD0334BD3F88430B4
:104E80001B0E03F00F033B612F4BD3F884301B0F35
:104E900003F00703FB607B685B689A017B681B6912
:104EA0001B041A433B691B061A43FB681B07264970
:104EB0001343C1F884307B681B6803F00073002B38
:104EC00011D07B685B689A017B681B691B041A43DD
:104ED0007B68DB681B061A437B689B681B071A49C3
:104EE0001343C1F88430184B1B68174A43F08063A2
:104EF0001360FCF7FDFE786108E0FCF7F9FE02465E
:104F00007B69D31A642B01D90323D8E00E4B1B68AD
:104F100003F00063002BF0D0BB69012B40F0CE8082
:104F2000094B1B68084A23F080531360FCF7E0FE2E
:104F300078610BE0FCF7DCFE02467B69D31A642B38
:104F400004D90323BBE000BF003802405E4B1B685E
:104F500003F00053B3F1005FECD07B681B6803F4EF
:104F60000023002B03D07B68DB6B002B09D07B6810
:104F70001B6803F48013002B2ED07B681B6C002B66
:104F80002AD1514BD3F888301B0C03F003033B614B
:104F90004D4BD3F888301B0F03F00703FB607B6891
:104FA0005B699A013B691B041A437B689B691B067A
:104FB0001A43FB681B0744491343C1F88830424B2E
:104FC000D3F88C3023F4F8527B689B6A013B1B02B8
:104FD0003D491343C1F88C307B681B6803F4001310
:104FE000002B22D07B68DB6FB3F1006F1DD1364BF5
:104FF000D3F888301B0E03F00F033B61324BD3F81C
:1050000088301B0F03F00703FB607B685B699A0124
:105010007B681B6A1B041A433B691B061A43FB6827
:105020001B0729491343C1F888307B681B6803F0CC
:105030000803002B28D0244BD3F888301B0E03F034
:105040000F033B61204BD3F888301B0C03F00303A4
:10505000FB607B685B699A01FB681B041A433B6930
:105060001B061A437B68DB691B0717491343C1F80A
:105070008830154BD3F88C3023F440327B68DB6AE0
:1050800011491343C1F88C300F4B1B680E4A43F093
:1050900080531360FCF72CFE786108E0FCF728FED3
:1050A00002467B69D31A642B01D9032307E0064B20
:1050B0001B6803F00053B3F1005FEFD100231846E3
:1050C0002037BD4680BD00BF0038024080B582B0A9
:1050D00000AF78607B68002B01D1012340E07B6842
:1050E000DB6F002B06D17B68002283F8782078687C
:1050F000FCF760FA7B682422DA677B681B681A6811
:105100007B681B6822F001021A607B685B6A002BD7
:1051100002D0786800F08CFA786800F025F8034631
:10512000012B01D101231BE07B681B685A687B6857
:105130001B6822F490425A607B681B689A687B68FF
:105140001B6822F02A029A607B681B681A687B68D9
:105150001B6842F001021A60786800F00BFB0346FE
:1051600018460837BD4680BD80B588B000AF78606E
:105170000023BB777B689A687B681B691A437B684E
:105180005B691A437B68DB6913437B617B681B683F
:105190001A68A64B13407A68126879690B4313604A
:1051A0007B681B685B6823F440517B68DA687B6826
:1051B0001B680A435A607B689B697B617B681B6A3A
:1051C0007A6913437B617B681B689B6823F43061B9
:1051D0007B681B687A690A439A607B681B68944AFB
:1051E000934220D1934BD3F8903003F00303032B69
:1051F00016D801A252F823F00952000815520008EF
:105200000F5200081B5200080123FB7750E10223D4
:10521000FB774DE10423FB774AE10823FB7747E165
:105220001023FB7744E17B681B68834A934232D1A9
:10523000804BD3F8903003F00C030C2B28D801A23C
:1052400052F823F079520008915200089152000858
:1052500091520008855200089152000891520008AE
:10526000915200087F5200089152000891520008A4
:10527000915200088B5200080023FB7718E10223AB
:10528000FB7715E10423FB7712E10823FB770FE19D
:105290001023FB770CE17B681B68684A934220D19E
:1052A000644BD3F8903003F03003302B13D0302B05
:1052B00014D8202B09D0202B10D8002B02D0102B73
:1052C00006D00BE00023FB77F2E00223FB77EFE050
:1052D0000423FB77ECE00823FB77E9E01023FB775E
:1052E000E6E07B681B68564A934220D1514BD3F8C5
:1052F000903003F0C003C02B13D0C02B14D8802BE8
:1053000009D0802B10D8002B02D0402B06D00BE008
:105310000023FB77CCE00223FB77C9E00423FB7773
:10532000C6E00823FB77C3E01023FB77C0E07B686F
:105330001B68444A934225D13E4BD3F8903003F486
:105340004073B3F5407F17D0B3F5407F17D8B3F55E
:10535000007F0BD0B3F5007F11D8002B03D0B3F53D
:10536000807F06D00BE00023FB77A1E00223FB77D0
:105370009EE00423FB779BE00823FB7798E0102353
:10538000FB7795E07B681B682F4A934225D1294B18
:10539000D3F8903003F44063B3F5406F17D0B3F502
:1053A000406F17D8B3F5006F0BD0B3F5006F11D86D
:1053B000002B03D0B3F5806F06D00BE00123FB7701
:1053C00076E00223FB7773E00423FB7770E0082389
:1053D000FB776DE01023FB776AE07B681B681B4A54
:1053E000934238D1134BD3F8903003F44053B3F5C4
:1053F000405F17D0B3F5405F2AD8B3F5005F0BD0FC
:10540000B3F5005F24D8002B03D0B3F5805F06D03E
:105410001EE00023FB774BE00223FB7748E00423E8
:10542000FB7745E00823FB7742E000BFF369FFEF1D
:105430000010014000380240004400400048004095
:10544000004C004000500040001401400078004033
:105450001023FB772CE07B681B68724A934225D1AE
:10546000714BD3F8903003F44043B3F5404F17D05D
:10547000B3F5404F17D8B3F5004F0BD0B3F5004F3D
:1054800011D8002B03D0B3F5804F06D00BE00023DA
:10549000FB770DE00223FB770AE00423FB7707E0AC
:1054A0000823FB7704E01023FB7701E01023FB7750
:1054B0007B68DB69B3F5004F5BD1FB7F082B28D8F5
:1054C00001A252F823F000BFED540008F554000883
:1054D000FD54000813550008035500081355000833
:1054E00013550008135500080B550008FFF79EF9E7
:1054F000B86113E0FFF7AEF9B8610FE04B4BBB6149
:105500000CE0FFF781F8B86108E04FF40043BB619D
:1055100004E00023BB610123BB7700BFBB69002B04
:1055200074D0BB695A007B685B685B081A447B686F
:105530005B68B2FBF3F33B613B690F2B16D93B6908
:10554000B3F5803F12D23B699BB223F00F03FB817E
:105550003B695B089BB203F007039AB2FB891343D4
:10556000FB817B681B68FA89DA604FE00123BB7717
:105570004CE0FB7F082B28D801A252F823F000BF93
:10558000A5550008AD550008B5550008CB550008D5
:10559000BB550008CB550008CB550008CB5500087B
:1055A000C3550008FFF742F9B86113E0FFF752F95D
:1055B000B8610FE01D4BBB610CE0FFF725F8B86147
:1055C00008E04FF40043BB6104E00023BB6101230A
:1055D000BB7700BFBB69002B18D07B685B685A089B
:1055E000BB691A447B685B68B2FBF3F33B613B69C0
:1055F0000F2B09D93B69B3F5803F05D23B699AB2BD
:105600007B681B68DA6001E00123BB777B680022BE
:105610009A667B680022DA66BB7F18462037BD4653
:1056200080BD00BF007C0040003802400024F40030
:1056300080B483B000AF78607B685B6A03F00803D6
:10564000002B0AD07B681B685B6823F400417B68F1
:105650005A6B7B681B680A435A607B685B6A03F07D
:105660000103002B0AD07B681B685B6823F40031C0
:105670007B689A6A7B681B680A435A607B685B6A2E
:1056800003F00203002B0AD07B681B685B6823F4DD
:1056900080317B68DA6A7B681B680A435A607B68E2
:1056A0005B6A03F00403002B0AD07B681B685B680D
:1056B00023F480217B681A6B7B681B680A435A605D
:1056C0007B685B6A03F01003002B0AD07B681B68C1
:1056D0009B6823F480517B689A6B7B681B680A4344
:1056E0009A607B685B6A03F02003002B0AD07B681A
:1056F0001B689B6823F400517B68DA6B7B681B682E
:105700000A439A607B685B6A03F04003002B1AD05F
:105710007B681B685B6823F480117B681A6C7B686C
:105720001B680A435A607B681B6CB3F5801F0AD163
:105730007B681B685B6823F4C0017B685A6C7B68DC
:105740001B680A435A607B685B6A03F08003002B86
:105750000AD07B681B685B6823F400217B689A6C25
:105760007B681B680A435A6000BF0C37BD465DF872
:10577000047B704780B598B002AF78607B680022E8
:10578000C3F88420FCF7B4FA78657B681B681B6853
:1057900003F00803082B2ED16FF07E4300937B6D3E
:1057A00000224FF40011786800F08CF80346002BBB
:1057B00021D07B681B68BB63BB6B53E8003F7B63F6
:1057C0007B6B23F080033B657B681B681A463B6D4F
:1057D0007B643A64396C7A6C41E80023FB63FB6BB1
:1057E000002BE6D17B682022DA677B68002283F8F1
:1057F0007820032362E07B681B681B6803F00403C6
:10580000042B49D16FF07E4300937B6D00224FF44F
:105810008001786800F056F80346002B3CD07B6886
:105820001B687B627B6A53E8003F3B623B6A23F460
:105830009073FB647B681B681A46FB6C3B63FA62DF
:10584000F96A3A6B41E80023BB62BB6A002BE6D1E0
:105850007B681B6808333B613B6953E8003FFB6092
:10586000FB6823F00103BB647B681B680833BA6CD8
:10587000FA61BB61B969FA6941E800237B617B6920
:10588000002BE5D17B682022C3F880207B680022B2
:1058900083F87820032311E07B682022DA677B6895
:1058A0002022C3F880207B6800221A667B680022D1
:1058B0005A667B68002283F8782000231846583700
:1058C000BD4680BD80B584B000AFF860B9603B6074
:1058D0001346FB714FE0BB69B3F1FF3F4BD0FCF7C0
:1058E00007FA02463B68D31ABA699A4202D3BB69E7
:1058F000002B01D103234EE0FB681B681B6803F0FB
:105900000403002B37D0BB68802B34D0BB68402BFE
:1059100031D0FB681B68DB6903F00803082B10D14A
:10592000FB681B6808221A62F86800F038F8FB6808
:105930000822C3F88420FB68002283F87820012322
:1059400029E0FB681B68DB6903F40063B3F5006FB3
:1059500011D1FB681B684FF400621A62F86800F00E
:105960001EF8FB682022C3F88420FB68002283F81D
:10597000782003230FE0FB681B68DA69BB681340DB
:10598000BA689A420CBF01230023DBB21A46FB79A6
:105990009A42A0D0002318461037BD4680BD80B47F
:1059A00095B000AF78607B681B687B637B6B53E8C6
:1059B000003F3B633B6B23F49073FB647B681B6885
:1059C0001A46FB6C3B64FA63F96B3A6C41E80023BE
:1059D000BB63BB6B002BE6D17B681B6808333B6263
:1059E0003B6A53E8003FFB61FB6923F00103BB64A2
:1059F0007B681B680833BA6CFA62BB62B96AFA6AE0
:105A000041E800237B627B6A002BE5D17B681B6E3B
:105A1000012B18D17B681B68FB60FB6853E8003FD3
:105A2000BB60BB6823F010037B647B681B681A466D
:105A30007B6CBB617A617969BA6941E800233B619B
:105A40003B69002BE6D17B682022C3F880207B686D
:105A500000221A667B6800229A6600BF5437BD4652
:105A60005DF8047B7047000084B080B584B000AF5F
:105A7000786007F11C0080E80E0097F82130012BB8
:105A800021D17B689B6B23F480327B689A637B68AF
:105A9000DA68214B13407A68D3607B68DB6823F4B3
:105AA00040127B68DA6097F82830012B05D17B68BB
:105AB000DB6843F480127B68DA60786800F092FA61
:105AC0000346FB7310E07B68DB6843F040027B68B1
:105AD000DA60786800F086FA0346FB737B689B6B9C
